:020000040800F2
:10000000A0EB0020C1010008694B0008654400080E
:10001000654B0008B1050008995F0008000000006A
:100020000000000000000000000000004157000830
:100030009D07000800000000014C0008E15900087D
:10004000DB010008DB010008DB010008DB01000820
:10005000DB010008DB010008AD070008DB01000838
:10006000DB010008DB010008DB010008DB01000800
:1000700075060008DB01000881060008DB010008A6
:100080008D06000899060008DB010008DB01000866
:10009000B5050008DB010008DB010008DB010008F2
:1000A000DB010008E95A0008DB010008DB01000859
:1000B000F55A0008015B0008DB010008DB010008BD
:1000C000DB010008DB010008DB010008DB010008A0
:1000D000DB010008395F0008455F00087D5F00080C
:1000E000DB010008DB010008DB010008DB01000880
:1000F000DB010008DB010008DB010008DB01000870
:10010000DB0100089D4C0008DB010008DB01000852
:10011000DB010008DB010008DB010008DB0100084F
:10012000DB010008DB010008A5060008B106000895
:10013000DB010008A1070008DB010008DB01000863
:10014000DB010008DB010008DB010008DB0100081F
:10015000DB010008BD060008C9060008DB01000835
:10016000DB010008DB010008DB010008DB010008FF
:10017000DB010008DB010008DB01000800000000D3
:10018000DB010008DB010008DB010008DB010008DF
:10019000DB010008DB010008DB010008DB010008CF
:1001A000DB010008DB010008DB010008DFF80CD0F0
:1001B00000F0BAF8004800471D600008A0EB0020DE
:1001C0000648804706480047FEE7FEE7FEE7FEE7F1
:1001D000FEE7FEE7FEE7FEE7FEE7FEE7D55A00088A
:1001E000AD0100082DE9F05F0546002092469B46D0
:1001F00088460646814640241BE02846414647463D
:10020000224600F080F853465A46C01A914110D356
:1002100011461846224600F067F82D1A67EB0108D0
:100220004F4622460120002100F05EF817EB00093E
:100230004E41201EA4F10104DFDC484631462A4627
:100240004346BDE8F09F10B5431A934209D2831884
:10025000881803E010F8011D03F8011D521EF9D2A1
:1002600010BD40EA01039B0703D009E008C9121F33
:1002700008C0042AFAD203E011F8013B00F8013B60
:10028000521EF9D210BDD2B201E000F8012B491E76
:10029000FBD270470022F6E710B513460A46044623
:1002A0001946FFF7F0FF204610BD421C10F8011B55
:1002B0000029FBD1801A7047034611F8012B00F882
:1002C000012B002AF9D11846704730B505460020A9
:1002D000034600E05B1C934205D2EC5CC85C201A2C
:1002E00001D1002CF6D130BD202A04DB203A00FADF
:1002F00002F1002070479140C2F1200320FA03F37D
:10030000194390407047202A04DB203A21FA02F07A
:100310000021704721FA02F3D040C2F1200291403F
:100320000843194670470000064C074D06E0E06898
:1003300040F0010394E8070098471034AC42F6D32C
:10034000FFF738FF6C8F00088C8F0008B0B50446AB
:1003500000284FF001001ED00D46002908BFB0BD97
:100360002868C8B1204640F21C41FFF793FF0620E1
:1003700084F8190240F64870C2F200000168256056
:10038000CA6842F02002CA60211D012203F0C2FFA8
:10039000002818BF0120B0BD0120B0BD2DE9F04FED
:1003A00081B040F2C029C2F20009D9F800108142A0
:1003B00002D001B0BDE8F08FB9F8040230B908F0FE
:1003C0004BF840F28001C2F200010860B9F8040263
:1003D00000F101081FFA88F4B4F5FF7FA9F8048240
:1003E0000BD909F21A2009F104012246FFF72BFF6D
:1003F00040F20140A9F81A8454E009EB040048F6E1
:10040000606500F1040B01270026C0F600050FF21D
:10041000BC0A08E0022E06F101064FF0000738BFC3
:100420000127032E23D035F816209442F2D35AF830
:100430002610ABEB0200FFF748FF0028EAD1F0B22C
:100440000146012818BF0221002808BF014689F88B
:10045000191209F21A2009F104012246FFF7F3FEEE
:100460000120F907A9F81A8489F81802A1D15FEAD6
:1004700008401CD007F0F0FF40F28001C2F20001FA
:100480000968401AB0F5FA7F11D3B9F8044209F2AD
:100490001A2009F104012246FFF7D5FE40F201506F
:1004A000A9F81A44A9F8180201B0BDE8F08FB9F80C
:1004B000040201224844011D40F64870C2F20000C7
:1004C00001B0BDE8F04F03F025BF00BFE48E000887
:1004D000EB8E0008F58E000870470000014640F6DC
:1004E0000450C2F2000002F06DBB000080B540F67F
:1004F0000450C2F2000002F077FB043818BF01205C
:1005000080BD000010B500F01BF801281CBF0120C1
:1005100010BD40F60450C2F2000002F08FFC044609
:1005200008B1204610BD40F60450C2F200004FF45E
:10053000006102F0FFF9002818BF0124204610BD19
:1005400081B001208DF803009DF8030001B07047D1
:1005500080B513460A46014640F60450C2F2000038
:1005600002F058FE002818BF012080BD40F2A00014
:10057000C2F2000000680121002205F0D9BD000090
:1005800080B513460A46014640F60450C2F2000008
:1005900002F0DAFE002818BF012080BD40F2A00062
:1005A000C2F2000000680221002205F0C1BD000077
:1005B000FEE7000040F60C10C2F2000000F044BC60
:1005C00082B0042002210022002707F071F940F2D6
:1005D0008808C2F20008C8F80000012007F054F9AA
:1005E00040F28401C2F20001086007F02FFF40F2E0
:1005F0000C050190C2F200050DF1040AE94602E083
:100600000137042F30D005EB071438012858A18892
:1006100001F0A8F9214611F8072F0646904207D0AD
:100620003046002E18BF0120087007F00FFFA060B1
:1006300007F00CFFD4E90212401A9042E0D314F8FC
:10064000060FB042DCD0002E18BF0126D8F80000FB
:1006500049460022002326708DF800708DF8016055
:1006600007F066F9CCE700BF50460A2105F000FD0F
:100670000027C8E740F67430C2F2000000F02EBE3A
:1006800040F6D430C2F2000000F028BE40F6B4209C
:10069000C2F2000000F022BE40F61430C2F20000A8
:1006A00000F01CBE40F6F410C2F2000000F016BECE
:1006B00040F63410C2F2000000F010BE40F6941074
:1006C000C2F2000000F00ABE40F65420C2F2000060
:1006D00000F004BE82B002200221002207F0E8F8F8
:1006E00040F28801C2F20001086007F0AFFE40F25C
:1006F0004C090190C2F200090DF1040B4FF47A7A13
:1007000004E000BF58460A2105F0B2FC002702E0D1
:100710000137022FF6D007EB870009EB80052E4644
:100720002C4616F8060F14F8111F03282974EFD869
:10073000DFE800F00C14021C2868A98801F018F901
:10074000207880F0010121703070E1E72868A988E5
:10075000012201F015F901202070D9E72868A98845
:10076000002201F00DF900202070D1E7A868BAFB43
:10077000F0F607F06BFEA84658F80C1F401AB0427E
:10078000C6D32868A98801F0F3F8207880F001002A
:10079000207007F05BFEC8F80000B9E77047000062
:1007A00040F63440C2F2000000F074BF012000F0B7
:1007B000FDBF000072B600BFFEE7000080B540F646
:1007C000F803C2F200035A7A002A1CBF012080BD40
:1007D00093F809C08646002003F80C005A7A03EB10
:1007E0008202C2F804E05A7A1A44107293F809C0DF
:1007F0000CF101025A720CF130020A7042F63A72A0
:10080000A1F80120C87080BD2DE9F04F81B038B14A
:1008100002682AB1172907D9042001B0BDE8F08F7A
:10082000052001B0BDE8F08F45684EF6045A43F646
:100830001047CEF2000AC4F202074FEAC10840F2A4
:1008400002294CF250364FF0805B0EE057F8040C52
:1008500010F0F00018BF0120396821F00201396062
:10086000002818BFB5F1010548D007F0EFFD57F893
:10087000041CC9030FD5044607F0E8FD001BB04275
:1008800012D8CAF800B0BFF34F8FBFF36F8F57F87D
:10089000040CC003F0D457F8040C10F0F00018BF9B
:1008A00001200028DCD102E003200028D8D13868DC
:1008B00020F47E703860386840EA080040EA090099
:1008C0003860386840F48030386007F0BFFD57F872
:1008D000041CC903BAD5044607F0B8FD001BB0429A
:1008E0000AD8CAF800B0BFF34F8FBFF36F8F57F825
:1008F000040CC003F0D4A9E70320ADE701B0BDE8C4
:10090000F08F00002DE9F04170B10446006858B145
:100910000E46B1F1006F03D39719B7F1026F07D9F3
:100920000426F0B2BDE8F0810526F0B2BDE8F08102
:100930004CF2503107F048FB012821D1A6F10260AA
:1009400010F5001F40F20000CFF6E0701CD24FF00F
:10095000FF356FF00261394481422AD24FF0FF37F0
:10096000681C4FF0040618BF17F1010037D120684A
:1009700000210022002306F0DBFFF0B2BDE8F08189
:100980000626F0B2BDE8F08148F684610025C0F685
:10099000000102E00135182DD9D051F82520B242CE
:1009A000F8D8172DD5D001EB85025268B242F1D9A3
:1009B000CFE748F68461781E0027C0F6000102E008
:1009C0000137182FCAD051F827208242F8D8172FA4
:1009D000C6D001EB870252688242F1D9C0E74FF0DE
:1009E0000008BD42C8BF4FF0010800DD23E02046EB
:1009F0002946FFF709FF0646B8B905E0013520464C
:100A00002946FFF701FF40B9AF42F7D14FF0000888
:100A1000BD42A8BF4FF00108E8E70646681E4FF048
:100A20000008B842A8BF4FF001082068002100224A
:100A3000002306F07DFFB8F1000F9ED0002696E758
:100A40002DE9F04100285AD0804601200D460126AC
:100A500006F01AFF0028C8F800004DD00320C8F89F
:100A6000040043F6044040F22311C4F20200C4F231
:100A70006751016048F6AB11CCF6EF510160F021EF
:100A8000002D81603FD004216FF00300C0F6040107
:100A900040F2192240F2162346582C18871D97421F
:100AA000A6809CBF370CA771C71D974200F10400B8
:100AB0009CBF370EE7719842EED3B5F818026A1E54
:100AC00000214FF4007300BF12F8017F013B39444D
:100AD000FAD195F81722114489B2461A18BF072691
:100AE00016F0070013D0072806D14046294600F02B
:100AF00013F8002808BF0026F0B2BDE8F0810526F3
:100B0000F0B2BDE8F081052616F00700EBD1002613
:100B1000F0B2BDE8F0810000F0B5ADF5077D064606
:100B200000284FF005004ED00D4600294BD055202F
:100B300085F81702002000212A5C0130B0F5007F03
:100B40001144F9D10027C0F6040701F15500A5F8BA
:100B500018023046394640F21A22FFF7D3FE90BB06
:100B6000304639462A4640F21A2300F031F850BB8D
:100B70006FF00301684640F2192240F2162300BFCD
:100B8000CE19766845188C1D9442AE809CBF340CFB
:100B9000AC71CC1D944201F104019CBF360EEE7184
:100BA0009942EDD3BDF8181200220023875C013270
:100BB000B2F5007F3B44F9D19DF81702184480B28A
:100BC000081A18BF0720C0B20DF5077DF0BD000060
:100BD0002DE9F04F89B00792B8B31D464FF00507D5
:100BE000A3B30446079888B3206878B38846B1F168
:100BF000006F4FF0040729D305EB0801B1F1026F34
:100C000024D8D4F804904CF250314CF2503607F00E
:100C1000DBF9012840F0DC8025F00300069005F0A8
:100C200003000390C5000798CDF814804EF6045BCE
:100C300043F60C48CEF2000BC4F2020801384FF024
:100C4000805A01940290089518E00527384609B0AB
:100C5000BDE8F08FD8F8000010F0F00718BF0127AA
:100C6000D8F8040020F00100C8F80400DDF8109066
:100C7000002F18BFB9F1010900F0AC8007F0E6FBC6
:100C8000D8F80010C90310D5054600BF07F0DEFBF9
:100C9000401BB04210D8CBF800A0BFF34F8FBFF37A
:100CA0006F8FD8F80000C003F0D4D8F8000010F01F
:100CB000F00718BF012700E00327089DFF24002F3D
:100CC000D6D1CDF81090D8F8040040F2012120F4DC
:100CD0004070C8F80400D8F804004FF00009084339
:100CE0000699C8F8040000293BD000BF079B49F0D3
:100CF000010113F80900595C49F0030240EA0120A0
:100D000049F00201595C9A5C40EA0140059940EAC9
:100D1000026049F8010007F099FBD8F80010C903F8
:100D20000FD5054607F092FB401BB04210D8CBF818
:100D300000A0BFF34F8FBFF36F8FD8F80000C00340
:100D4000F0D4D8F8000010F0F00718BF012700E039
:100D50000327089DFF2427B9069809F10409814556
:100D6000C4D3039800283FF47BAF002F7FF478AF03
:100D700002984FF0FF324844002100BF10F8017F75
:100D800004FA01F39A4307FA01F308318D4242EA6B
:100D90000302F3D1059849F8002007F057FBD8F873
:100DA0000010C9037FF556AF054600BF07F04EFBA4
:100DB000401BB0420AD8CBF800A0BFF34F8FBFF35F
:100DC0006F8FD8F80000C003F0D443E7032747E74C
:100DD00006273BE70198002100680022002306F067
:100DE000A7FD33E710B586B0044640F6E440C2F2F2
:100DF000000001A9002201F027FB002818BFFFF71F
:100E0000D9FC40F6E440C2F200006946002201F03D
:100E1000E9FA002818BFFFF7CDFC9DF803009DF804
:100E2000001000F5FA60A080BDF801002172E0809A
:100E30009DF80400BDF805102070A4F8011006B05C
:100E400010BD0000704700002DE9F04F81B004464E
:100E500000684669D0F804908768D0F80CB0D0F8E4
:100E600010A0D0F81880F10703D1002530071CD45A
:100E700023E0F90710D00121BA07816009D478076F
:100E800000F1AA80380700F1B080204600F0C4F9D4
:100E900002E0204600F0C2F90025F80500F1848048
:100EA000F80300F1AA80300707D51BF0100004D02A
:100EB000206845F400751021C160700708D51BF04B
:100EC000080005D020680821C160204600F09AF98A
:100ED000B00706D52068C068800702D0204600F021
:100EE00093F9700607D51AF0100004D0206845F475
:100EF000806510210161B00608D51AF0080005D000
:100F0000206808210161204600F080F9F00606D52E
:100F100020680069800702D0204600F079F9B0030C
:100F200008D519F0100005D0206810214160204636
:100F300000F070F9F00308D519F0080005D020681A
:100F400008214160204600F073F9300440F18F80A1
:100F50005FEA497040F1888006F4807008EA10204A
:100F600028435FEA8871014648BF41F00201B2059B
:100F700058BF01465FEA48700D4648BF45F004057A
:100F8000700558BF0D4630056ED518F070006BD057
:100F900010380009052862D8DFE800F003535659DD
:100FA0005C5F45F008055AE020684FF48071BA058F
:100FB00081600AD4780512D4380519D4204600F08F
:100FC0002FF9F8037FF56FAF17E0204600F02AF9FC
:100FD000F8037FF568AF10E04FF400655DE705F5B5
:100FE0000055F8037FF55FAF07E04FF4805554E7F5
:100FF00005F58045F8037FF556AF20684FF4803142
:10100000BA0381600AD478030FD4380313D420467E
:1010100000F00AF930073FF548AF4EE7204600F0F0
:1010200005F930073FF541AF47E705F500453007C3
:101030003FF53BAF41E705F5803530073FF535AF6C
:101040003BE745F010050AE045F0200507E045F0D4
:10105000400504E045F0800501E045F48075206816
:10106000816921F0700181612068042141604DB1E6
:10107000606A40EA05012046616201B0BDE8F04FB8
:10108000FFF7E0BE01B0BDE8F08F0000B0B5C8B119
:10109000044690F8200010B9204600F071F820684E
:1010A000016841F00101016000F070FC054600BFDD
:1010B00020684168C90707D100F068FC401B0B2875
:1010C000F6D312E00120B0BD016821F002010160F9
:1010D00000F05CFC054600BF2068416889070DD51B
:1010E00000F054FC401B0B28F6D3606A052140F445
:1010F00000306062012084F82010B0BD217E0268BB
:10110000012922F0800208BF80320260617E0268FD
:10111000012922F0400208BF40320260A17E02682D
:10112000012922F0200208BF20320260E17E02681D
:10113000012922F0100218BF10320260217F0268DC
:10114000012922F0080208BF08320260617F0268AC
:10115000012922F0040208BF04320260D4E901C26E
:10116000D4E9033561691A432A431143ACF1010202
:101170001143C16100200121606284F82010B0BDDC
:1011800080B586B046F200410068C4F2000100223A
:1011900088420592CDE903220292019201D006B065
:1011A00080BD43F630000092C4F20200036943F0B0
:1011B00000730361036903F000730093009B0092C6
:1011C000036843F001030360006800F00100009031
:1011D00000984FF4C05001900220CDE90202032094
:1011E00004900920059001F5CE3001A900F0EAFA3B
:1011F00014200521002200F07DFC142000F06AFC80
:1012000006B080BD704700007047000070470000C6
:1012100070470000704700007047000070470000F2
:1012200070470000704700007047000070470000E2
:101230007047000070B5866D044600F0A7FB94F877
:101240003510022925D105462068216C026822F05C
:1012500016020260426922F08002426109B9A16C63
:1012600019B1016821F008010160016821F0010154
:10127000016000BF20680068C0070ED000F086FB48
:10128000401B0628F6D320206065032084F8350033
:101290000CE080206065012008E0E06D3F2101FA4C
:1012A00000F0B060012084F835000020002184F8AF
:1012B000341070BD90F83510022909D1052180F84D
:1012C00035100068016821F00101016000207047BD
:1012D0008021416501207047406D7047F0B581B0B5
:1012E00004460020009040F20800C2F200000268AC
:1012F000D4E9166048F2B51337680821C1F64E33B9
:1013000081403942A2FB03250CD0226813685B0799
:1013100008D5136823F004031360B160616D41F0D8
:101320000101616501218140394208D0226852697A
:10133000120604D5B160616D41F0020161650421BE
:101340008140394208D022681268920704D5B16002
:10135000616D41F00401616510218140394215D071
:1013600020680268120711D5B16002680168520353
:1013700006D4C90506D4016821F00801016001E026
:1013800008033ED4216C09B120468847E16D202036
:1013900000FA01F23A4240D020680368DB063CD5EF
:1013A000B26094F835300268052B1AD122F016028B
:1013B0000260426922F080024261226C0AB9A26C8A
:1013C0001AB1026822F0080202603F208840B06033
:1013D000012084F83500216D002084F83400D9BB49
:1013E0003FE00168520310D4C90512D4016821F00E
:1013F00010010160012084F83500002084F83400D9
:1014000007E0A16C0029BFD1C0E7080301D4616CDB
:1014100000E0E16B09B120468847606D08B3606D5C
:10142000C00717D0052084F835002068A90A026893
:1014300022F00102026000BF009A01328A4200924B
:1014400002D80268D207F7D1012084F835000020C5
:1014500084F83400E16C21B1204601B0BDE8F040D1
:10146000084701B0F0BD00002DE9F041044600F04E
:101470008DFAC4B10546022084F8350000202168A9
:1014800084F83400086820F00100086020680168D2
:10149000C9070BD000F07AFA401B0528F6D90321C2
:1014A000202203207AE00120BDE8F081016848F2A3
:1014B0003F02CFF21002D4E9013501EA020ED4E96D
:1014C000032143EA0E032B43D4E9056C1A43D4E904
:1014D00007781143314341EA0702616A42EA080290
:1014E000042942EA0C0303D1D4E90B273A431343FE
:1014F00003604269042922F0070241EA02012DD16A
:10150000D4E90A5341EA050143B3BCF5005F08D0B2
:10151000BCF1000F12D1022D16D0012D07D09DB1C4
:1015200019E0032D17D8DFE805F00B0F0B02A3F12C
:10153000C072B2FA82F252094AB90FE0032D02D208
:10154000012222B90AE006D1C3F3006232B10121BF
:101550004022012022E00022002AF8D100F0F80207
:101560004AF6AB23103ACAF6AA23A2FB033748F681
:101570007C6341613909C0F60003595C40F2FF33D6
:1015800098435F2A4FF03F0288BF0430C4E9160138
:1015900002FA01F18160002201210020626584F8D5
:1015A0003510BDE8F081000070B590F834C0BCF192
:1015B000010F45D04FF0010C80F834C0D0F858E04E
:1015C00090F835C0BCF1010F37D14FF0020C80F814
:1015D00035C04FF0000CC0F854C0D0F800C084688B
:1015E000056CC06DDCF80060402C26F48026CCF839
:1015F0000060CCF804300B4604BF13460A463F2176
:1016000001FA00F0CCF80830CCF80C20CEF8080035
:10161000DCF8000040F01600CCF800002DB1DCF83A
:10162000000040F00800CCF80000DCF8000040F0BA
:101630000100CCF80000002070BD002180F83410BB
:10164000022070BDB0B5044600F0A0F9054640F296
:101650007400C2F200000078611C18BF044400BF8F
:1016600000F094F9401BA042FAD3B0BD80B500F061
:101670000DF8000658BF80BD40F29800C2F200008D
:101680000068BDE8804004F07FBD0000D0F88C0009
:10169000704700002DE9F04381B0016843F614481B
:1016A00041F214020446C4F2010888188F6B8D5869
:1016B0008668D8F80090690609D516F0400106D072
:1016C0004021C0F201010160204600F05BF8E8070C
:1016D00018BF16F0010002D128040BD432E02068B4
:1016E00041F214014FF001124250204600F052F82E
:1016F000280427D516F4004024D02068D4F8881098
:1017000041F2140241F00801C4F888108158AB047A
:10171000104406D448F280621140C4F88C10026074
:101720000DE042F20002C0F27E021140C4F88C10BB
:10173000816821F4C0318160E020C4F88400204633
:10174000FFF794FF38070BD52068C06A00F06000EF
:10175000C4F89400204600F013F80020C4F8940068
:101760005FEA09305CBF01B0BDE8F0834FF40021AF
:101770002046C8F8001001B0BDE8F04300F012B8F0
:101780007047000040F29800C2F20000006804F0C8
:10179000FBBC000040F2B000C2F20000006804F0A0
:1017A000F3BC0000704700007047000043F614418E
:1017B000C4F201010A68024214BF08607047FFF7D3
:1017C000F3BF00002DE9F04F82B000F13E4242F23B
:1017D000004502F1FF77C4F202050A224FEAB7265C
:1017E000A84208BF0922092E38BF4FEAB7224FF09E
:1017F000010A002400274FF00009009209E000BF11
:1018000009F101090237B9F1100F04F1040400F0E5
:10181000A6800A680AFA09FC12EA0C08F0D0D1F88E
:1018200004B00BF0030AAAF10102012A12D882685F
:101830000323CE6803FA07FE22EA0E02BE403243BB
:1018400082604268CBF3001622EA0C0206FA09F61F
:1018500032434260BAF1030F1DD0C26803238D6882
:1018600003FA07F6B24305FA07F63243BAF1020F5C
:10187000C26010D16FF0030202EA59020244D2F8AA
:1018800020C004F01C050F230E69AB402CEA0303B3
:10189000AE4033431362026803234E68BB409A4351
:1018A00006F00303BB401A4316F4403F4FF0010A11
:1018B0000260A5D0002243F644030192C4F2020361
:1018C0001A6843F6004E42F480421A601A68C4F265
:1018D000010E02F480420192019A29F003024FF6B0
:1018E000084C7244CFF6FF7C52F80C3004F00C0622
:1018F0000F25B540AB43009D05FA06F6334342F889
:101900000C30DEF808204B6842EA080643F60C4C1F
:10191000DD0258BF22EA0806CEF80860C4F2010CC6
:10192000DCF800209D0242EA080658BF22EA0806B9
:10193000CCF80060DEF804209D0342EA080658BF98
:1019400022EA0806CEF80460DEF80020DB0342EA53
:10195000080658BF22EA0806CEF8006050E702B039
:10196000BDE8F08F0069084018BF012070470000F3
:10197000426902EA0103914341EA034181617047F0
:10198000002A08BF09048161704700004DF6382025
:10199000C2F200000068704740F274004DF6382132
:1019A000C2F20000C2F2000100780A681044086028
:1019B0007047000080B543F60040C4F202000168A1
:1019C00041F400710160016841F4806101600168C7
:1019D00041F480710160032000F0B8F80F2000F09E
:1019E00005F800F055F8002080BD0000B0B586B0C5
:1019F000002543F644010195C4F202010A68044639
:101A000042F001020A60096801A801F00101019198
:101A10000199694600F0BCFA00F0EEFA4DF68361D8
:101A20004000C4F21B31A0FB01014FF0FF3000EB7E
:101A3000914140F6E0500022C2F20000C4F20102DF
:101A400040F2E733C0E90021C0E902530561856136
:101A500001F0E8FE0546C0B940F6E050C2F20000D1
:101A600001F066FF054680B9192000F033F80F2C0D
:101A70000AD819202146002200F03CF840F27800F4
:101A8000C2F20000046000E00125284606B0B0BDA7
:101A900082B0002043F640010190C4F202014A687E
:101AA00042F480424A604A6802F480420192019AFC
:101AB00000900868002240F08050086008680F21FC
:101AC00000F08050009000986FF0010002B000F02C
:101AD00011B80000002848BF704700F01F01012224
:101AE00002FA01F14EF200124009CEF2000242F871
:101AF0002010704710B54EF60C5CCEF2000CDCF8EE
:101B00000030C3F3022E8EF00704042C28BF0424F7
:101B1000BEF103034FF0FF3E0EFA04F438BF00237A
:101B2000A14399400EFA03F39A43114300F1604236
:101B300000F00F03090102F56442043B63440028EE
:101B400048BF03F10C02117010BD00004EF60C519D
:101B5000CEF200010A684FF6FF031A4060F30A2232
:101B600042F0806040F0FD700860704770B582B050
:101B70000020019043F64000C4F2020001684026B4
:101B800041F0805101600068C4F20E2600F08050E0
:101B90000190019847F204050120C4F2000530606D
:101BA000FFF7F4FE044600BF2868C00306D4FFF721
:101BB000EDFE001BB0F57A7FF6D90EE001207060D3
:101BC000FFF7E4FE044600BF2868800308D4FFF74F
:101BD000DDFE001BB0F57A7FF6D9032002B070BDA0
:101BE000002002B070BD0000F0B581B0044600785E
:101BF00043F6700610F0430FC4F2020634D0682793
:101C0000C4F2472700203860FFF7C0FE054600BF3A
:101C100056F8700C000105D5FFF7B8FE401B0228EE
:101C2000F6D993E02068C10740F09380810700F166
:101C30009980400608D5E168D4E90102090641EA25
:101C4000801040EA0270706101203860FFF79EFE4C
:101C5000054600BF56F8700C000105D4FFF796FE4C
:101C6000401B0228F6D971E0207810F00C0F49D003
:101C70006827C4F247270020B860FFF787FE0546B3
:101C800056F8700C800005D5FFF780FE401B022837
:101C9000F6D95BE02068410713D5B169D4E9042384
:101CA00001F0E04141EA821141EA0361256AB16134
:101CB000F1696FF0FF0221F4F85102EB05221143A4
:101CC000F16100070FD5B069216900F07060A26969
:101CD00040EA811040EA0270636AB061F06920F462
:101CE00040301843F0610120B860FFF74FFE054611
:101CF00056F8700C800005D4FFF748FE401B022800
:101D0000F6D923E02078800670D50020009056F8A0
:101D1000300C47F2000740F0805046F8300C56F87F
:101D2000300CC4F2000700F0805000900098386832
:101D300040F480703860FFF729FE05463868C0051A
:101D400025D4FFF723FE401B0228F7D9032001B05A
:101D5000F0BDD4E90121090741EA821171618107CF
:101D60007FF567AF7169626801F0E041E36841EABD
:101D7000821141EA0361E5697161F1696A1E21F02E
:101D80001F011143F16140063FF555AF5CE7306834
:101D900010F4407013D0A16A01F4407188420ED053
:101DA000306840F64061C4F24721012220F44070BF
:101DB0000A6000220A6030603068C00727D1A06A3C
:101DC00056F8681C4FF6FF4300F4407221F4F811F6
:101DD000C0F6FF730340B2F5407F08BF194346F8D1
:101DE000681C31686FF31F30084330602078C006EC
:101DF00002D4002001B0F0BD94F82C0040F6406100
:101E0000C4F24721C1F8A003002001B0F0BDFFF7E4
:101E1000BDFD054641F2883730688007CFD4FFF713
:101E2000B5FD401BB8424FF00300F5D9EDE70000C7
:101E30002DE9F041002800F08B8043F60808C4F239
:101E400002080446D8F8F8030D4600F00F00884257
:101E500007D288F8F853D8F8F80300F00F00A8422A
:101E600076D12068810717D5410705D5D8F800102D
:101E700041F4E051C8F80010010705D5D8F800106A
:101E800041F46041C8F80010D8F80010A26821F0B1
:101E9000F0011143C8F80010C0073FD1D8F8F8038B
:101EA00000F00F00A84207D988F8F853D8F8F803D3
:101EB00000F00F00A8424BD12068410707D5D8F8A1
:101EC0000010E26821F4E0511143C8F80010000747
:101ED00008D5D8F80000216920F4604040EAC1002C
:101EE000C8F8000000F09CF8D8F8001048F64862E6
:101EF000C1F30311C0F60002515C40F2080220FA5F
:101F000001F140F27800C2F200000068C2F2000263
:101F10001160FFF76BFD0020BDE8F0816068811E55
:101F2000022907D258F8081C89015CBF0120BDE8CE
:101F3000F08110E0012807D158F8081C89035CBF24
:101F40000120BDE8F08106E058F8081C890702D49A
:101F50000120BDE8F081D8F8001021F0030108430A
:101F6000C8F80000FFF712FD064641F2883700BFAF
:101F7000D8F80000616800F00C00B0EB810F8DD044
:101F8000FFF704FD801BB842F2D90320BDE8F081C1
:101F90000F22026043F60802C4F20202136803F043
:101FA00003034360136803F0F0038360136803F4D2
:101FB000E053C360D2F800C04FF4E05303EADC03FF
:101FC0000361D2F8F80300F00F00086070470000CA
:101FD00040F2080043F60801C2F20000C4F2020118
:101FE0000068096848F65862C1F38221C0F6000211
:101FF000515CC8407047000040F2080043F60801F9
:10200000C2F20000C4F202010068096848F6586292
:10201000C1F34231C0F60002515CC8407047000075
:1020200010B543F60404C4F20204606800F00C002A
:1020300008280AD0042819BF42F20040C0F2F40078
:1020400047F64000C0F27D1010BD2068216823686B
:10205000490247F64001C0F27D1100F03F02C3F390
:1020600088105CBF42F20041C0F2F401A1FB000104
:102070000023FEF7B7F821680222C1F3014102EB09
:102080004101B0FBF1F010BD2DE9F04182B0002814
:1020900000F0A1800446007843F60006C007C4F2B1
:1020A000020643D0B06800F00C00042805D1306867
:1020B00080033BD56068C8BB8DE0B06800F00C00C1
:1020C000082802D170684002F1D46568B5F5A02FE8
:1020D0000AD0B5F5803F0BD0306820F480303060F6
:1020E000306820F4802006E0306840F480203060C2
:1020F000306840F480303060FFF748FC002D054622
:1021000011D000BF3068800310D4FFF73FFC401BA4
:102110006428F7D920E100BFFFF738FC401B642892
:102120004FF0030054D830688003F5D4207880073E
:102130001AD5B06810F00C0F09D0B06800F00C0090
:10214000082840F088807068400200F18480306880
:10215000800702D5E06801283DD13068216920F070
:10216000F80040EAC10030602078000737D42078BA
:1021700040074AD4A56955B3B06800F00C000828A0
:1021800040F09C80012D26D07068E16900F4800247
:102190008A4220D1216A00F03F028A421BD147F6D1
:1021A000C071626A0140B1EB821F14D1A16A4FF67F
:1021B000FF73C903994300F44032A1F580318A428C
:1021C00009D1E16A00F07060B0EB016F03D100202B
:1021D00002B0BDE8F081012002B0BDE8F081606985
:1021E000002840F20000C4F2472056D00121C0F878
:1021F000801EFFF7CBFB0546706F8007B7D4FFF753
:10220000C5FB401B0228F7D9A6E0306C10F08058BF
:102210000AD100200190306C40F080503064306C66
:1022200000F080500190019847F20007C4F20007C7
:102230003868C00524D4386840F480703860FFF7EF
:10224000A5FB05463868C0051AD4FFF79FFB401B65
:102250000228F7D980E0E068002851D00020C4F2BD
:10226000472001210160FFF791FB05463068800798
:102270003FF573AFFFF78AFB401B0228F6D96BE0EE
:10228000A568052D50D0012D52D0306F20F00100EF
:102290003067306F20F004004DE00021C0F8801E50
:1022A000FFF774FB054600BF706F80077FF55FAFD7
:1022B000FFF76CFB401B0228F6D94DE00027C4F263
:1022C000472700203866FFF761FB022D05460BD13A
:1022D0003068800158D5FFF759FB401B02284FF0AA
:1022E0000300F5D974E700BF306880017FF56FAF58
:1022F000FFF74CFB401B02284FF00300F4D967E7BF
:102300000020C4F2472000210160FFF73FFB054693
:10231000306880077FF528AFFFF738FB401B0228A5
:102320004FF00300F4D953E7306F40F004003067FA
:10233000306F40F001003067FFF728FB002D0546A5
:1023400041F2883714D000BF306F800713D4FFF7F5
:102350001DFB401BB842F7D9032002B0BDE8F08155
:10236000FFF714FB401BB8424FF003003FF630AFBD
:10237000306F8007F4D4B8F1000F7FF4FBAE306CFF
:1023800020F080503064F5E604F11C052FCD0843A1
:1023900040EA8210D9034FF6FF729143A1F58031D4
:1023A00040EA05600843706001203866FFF7EEFAE6
:1023B000044600BF306880013FF509AFFFF7E6FA39
:1023C000001B02284FF00300F4D901E7006800EB7E
:1023D0008100006D70470000006800EB810002651D
:1023E0007047000010B5006840684FEA1043C0F322
:1023F000042E00F03F0CC0F34234CB7081F801E0B2
:1024000081F802C00C700AB1002010BDDCB22409B2
:1024100004EB840403F00F0303EB4403020ACB70C4
:102420004FEA1E1343EA830302F00F0202EB43025A
:102430004A704FEA1C1242EA820200F00F0000EBE1
:1024400042008870002010BD10B50068836A4B60A0
:1024500003696FF3DF338B600068C0F30543C0F39B
:10246000062E00F07F0CC0F380540B7081F801E061
:1024700081F802C0CC700AB1002010BD020C1B090B
:1024800043EA830302F00F0202EB4302040A0A70DC
:102490004FEA1E1202EB820204F00F0303EB42022A
:1024A0004A704FEA1C1202EB820200F00F0000EBB0
:1024B00042008870002010BDF0B581B088B304469A
:1024C000407F20B900202077204600F081F80220CC
:1024D00060772068C168C90625D4CA2141625321AA
:1024E0004162C168490620D4C16841F08001C160E1
:1024F000FFF74CFA2168C96849064CD40546002606
:10250000042700BFFFF742FA401BB0F57A7F84BF73
:10251000677701262068C068400607D4012EF1D1F4
:1025200004E001264CE0002646E00026BEBB94E80D
:102530000F004FF6BF768768CFF68F7637408760FB
:10254000276939436769866839433143816003618C
:10255000016941EA02410161C16821F08001C16065
:10256000816889061AD447F65F71C0F20101C16023
:10257000FFF70CFA054600BF2068C068800622D429
:10258000FFF704FA401BB0F57A7FF5D90420012645
:10259000607776B904E000260EB9C8E7002646B990
:1025A0002068A169026C22F480220264026C11434B
:1025B00001642068FF214162002E04BF0120607782
:1025C000F0B201B0F0BD0026002EF2D1E8E7000025
:1025D00010B58CB0044668463021FDF75BFE2068DC
:1025E00042F60001C4F20001884201D00CB010BDD7
:1025F000202000904FF480700A906846FFF7F4FAAC
:10260000002818BFFEF7D6F840F63C60C4F2472019
:10261000012101600CB010BD2DE9F0470446007F98
:102620000227012800F0B0800120207767773AB1B7
:102630004878CA7891F802A0000240EA024843E0D4
:1026400048784FF0CD0CC20642BF00F0EF000A30D0
:102650004870CA784878A2F10A03DFB207FB0CF78A
:10266000FD0A05EB8505A3EB4503012591F802A0C2
:1026700005EBD727092A88BF43EA0712A0F10A030E
:10268000DFB207FB0CF7FE0A06EB8606A3EB460358
:1026900005EBD727092888BF43EA0710C0B2D2B29A
:1026A000000240EA0248AAF10A00C2B202FB0CF2A0
:1026B000D30A03EB8303A0EB430005EBD222BAF16C
:1026C000090F88BF40EA021A206891F80090CA21D9
:1026D000416253214162C16849061CD4C16841F07E
:1026E0008001C160FFF752F92168C96849063FD4EB
:1026F00005460027042600BFFFF748F9401BB0F548
:102700007A7F84BF667701272068C068400603D4BB
:10271000012FF1D100E000276FBB5FFA8AF040EA99
:1027200008004FEA493120F0C0022068114341609F
:10273000C16821F08001C1608168890616D447F61E
:102740005F71C0F20101C160FFF720F9054600BFCB
:102750002068C068800609D4FFF718F9401BB0F55F
:102760007A7FF5D904200127607704E0002702E092
:102770000027002FD1D0002F04BF012060772068F0
:10278000FF21416200202077F8B2BDE8F087000009
:102790002DE9F04F81B00446007F0227012800F0A8
:1027A000C38001202077677720688B46806800F01F
:1027B000400072B1002804BF00208BF803009BF892
:1027C00001109BF800009BF80290090241EA0048C2
:1027D0003FE0002804BF00208BF803009BF80000B6
:1027E000CD27A0F10A02D3B27B43DE0A9BF8011089
:1027F00006EB8606A2EB460201269BF8029006EB4A
:10280000D323092888BF42EA0310A1F10A02D3B2F8
:102810007B43DD0A05EB8505A2EB450206EBD323DE
:10282000092988BF42EA0311C9B2C0B2090241EACC
:102830000048A9F10A00C1B27943CA0A02EB820238
:10284000A0EB420006EBD121B9F1090F88BF40EAA5
:1028500001192068CA219BF803A0416253214162FB
:10286000C16849061BD4C16841F08001C160FFF70F
:102870008DF82168C96849064AD406460027042510
:10288000FFF784F8801BB0F57A7F84BF6577012756
:102890002068C068400603D4012FF1D100E0002772
:1028A000CFBB5FFA89F040EA080047F67F7240EA42
:1028B0008A51C0F27F02206811400160816821F4D2
:1028C00080218160DBE90312836811431943816031
:1028D000C16821F08001C1608168890616D447F67D
:1028E0005F71C0F20101C160FFF750F8054600BFFB
:1028F0002068C068800609D4FFF748F8401BB0F58F
:102900007A7FF5D904200127607704E0002702E0F0
:102910000027002FC5D0002F04BF0120607720685A
:10292000FF21416200202077F8B201B0BDE8F08FAE
:10293000FDF7D2BD2DE9F04186B00446032084F8AE
:102940003400606C8846032810D14FF08050A16B92
:1029500040F2FF560843A063A06BC0F2400668B384
:1029600020680125866384F8345031E0B8F1000F07
:1029700041D0B8F5805FE8D0B8F5006F51D10021A3
:10298000206805910491002102F084F980014BD464
:1029900004A9204602F0F2FC0028D8D19DF81600C8
:1029A00040073BD5216D2068090402F0A3F90028F7
:1029B000CDD12068022102F0E7F9C8E794E80F00C2
:1029C000D4E90557CDE90085029702F06DF900259D
:1029D00020684FF4007102F0CBF928B1216801257D
:1029E0008E63A16B0843A0630121284684F834104C
:1029F00006B0BDE8F0810021206805910491002116
:102A000002F048F980010FD404A9204602F0B6FC78
:102A100000289CD19DF81600C00708D14FF08060B7
:102A200095E74FF0006092E74FF400608FE7216D6B
:102A30002068090402F05EF900287FF488AF20685E
:102A4000002102F0A1F982E77047000080B5D0E9CB
:102A5000193ED0F844C09A0F0A70C3F383624A70DB
:102A6000C3F301628A701A0CCA701A0A0A714FEA1B
:102A70001E524B71CA80CEF303420A72CEF3C032AB
:102A80004A72CEF380328A72CEF34032CA72CEF3EB
:102A900000320A730022BCF1010F4A732DD0BCF141
:102AA000000F40F0808040F6FC72C36E02EA8E0296
:102AB00042EA93720A61C26EC2F3C2630B75C2F33B
:102AC00002634B75C2F342538B75C2F38243C2F368
:102AD000C232CB750A760A690B7E013203F0070316
:102AE00002339A4042650B7A03F00F0C012303FA7C
:102AF0000CF383655B0A5A430FE0B0F86E200EF0CA
:102B00003F0342EA03420A610A694FF4806303EB20
:102B100082224FF40073C0E91523C2654FF400729E
:102B20000266D0E91B20C2F380334B76C2F3C61392
:102B300002F07F028B76CA76C20F0A77C0F3417229
:102B40004A77C0F382628A77C0F38352CA77C0F3B0
:102B5000405281F820200022C0F3004381F8212058
:102B600081F82230C0F3C03381F82330C0F38033C2
:102B700081F82430C0F3403381F82530C0F30033AE
:102B800081F82630C0F3812381F82730C0F3012378
:102B9000C0B2400881F8283081F82900012081F86E
:102BA0002A00104680BD016840F2FF52C0F2400288
:102BB0008A63816B012241F08051816380F8342067
:102BC000104680BD80B500F1440E9EE80C5081E8AF
:102BD0000C10426DC1E903E2D0E91623C1E90523D7
:102BE000026E0020CA6180BDB0B5016D0446006868
:102BF000090402F0CFF910B10546002006E0206874
:102C00000021002502F046F8C0F34320002D08BF44
:102C1000B0BDA16B2943A163B0BD00002DE9F04117
:102C200082B004460068256B416B05F00806090474
:102C300013D596B1E56A6DB1A66A0027206802F047
:102C40004FF8F0510437202FF8D1A5F12000F119E9
:102C5000C4E90A1002B0BDE8F081416BC9052BD46C
:102C6000416B49044FD5002E4DD0D4F82480B8F1E3
:102C7000000FEFD0276A002601AD00BFB85DB9197B
:102C800001904A7840EA022001908A7840EA0240A6
:102C90000190C97840EA016120680191294602F05B
:102CA00023F80436202EE9D1A8F12000B919C4E98F
:102CB000081002B0BDE8F0814FF480718163C16BF0
:102CC0004CF23A329143C163C16A002E21F00101F6
:102CD000C16266D12906BDD5A90608D502F0B4F9AE
:102CE00028B1A16B0843A0632046FFF7ADFEA807FB
:102CF000B0D12068C16A21F00801C16201212046DB
:102D000084F834106AE0416B40F23A221142A1D0BB
:102D1000416B890703D5A16B41F00201A163416BAF
:102D2000090703D5A16B41F00801A163416B890636
:102D300003D5A16B41F02001A163416BC90603D506
:102D4000A16B41F01001A163416B890503D5A16B13
:102D500041F00801A16340F23A718163C16B40F216
:102D60003A329143C16302F06FF9A16B40EA01006E
:102D7000A063C6BB28067FF56DAF15F0300F3DD0C0
:102D8000E06B45F21131C0F600010165FEF792FAE1
:102D900000283FF45FAFE06B02B0BDE8F04102F005
:102DA000B7BA15F0220F08D002F04EF928B1A16B86
:102DB0000843A0632046FFF747FE206840F23A51DF
:102DC0008163012084F834000020A9072063204695
:102DD00004D002B0BDE8F04100F0B2BA02B0BDE8E4
:102DE000F04100F0AFBA0120002184F83400204601
:102DF000216302B0BDE8F041FFF726BEA80710D05E
:102E0000206C45F29521C0F600010165FEF752FAEB
:102E100000283FF41FAF206C02B0BDE8F04102F083
:102E200039BA00210120A16384F8340020462163CF
:102E300002B0BDE8F041FFF77BBD000010B5D0B196
:102E4000044690F8340020B900202077204600F096
:102E500023F9032084F83400204600F00FF80028FE
:102E60004FF0010018BF10BD0021A163216384F859
:102E70003400002010BD012010BD0000F0B58FB05F
:102E800004460068762100260291002100220023DA
:102E90000096019601F008FF00284FF0010540F070
:102EA000E58048F2A007C4F225273E60206801F0C3
:102EB00011FF02203D60FEF7C5FB0496206801F07B
:102EC0006FFF38B198B1012584F83450A16B0843E5
:102ED000A063CBE0206801F087FF00286DD0206858
:102EE0000021A16401F05CFF0028EBD167E02068BD
:102EF0000121ADF80E1001F0C9FE002800F08F800E
:102F0000606C03281DD0206801F0CEFF002840F03F
:102F100088802068002101F0BDFE216860670846B6
:102F2000042101F0B7FE2168A0670846082101F0DE
:102F3000B1FE2168E06708460C2101F0ABFEC4F841
:102F40008000606C032806D020680DF10E0102F0AD
:102F50002DF8002865D1606C03281FD0BDF80E1035
:102F600020682165090401F0D3FF002859D12068A9
:102F7000002101F08FFE216860660846042101F0FF
:102F800089FE2168A0660846082101F083FE2168B9
:102F9000E06608460C2101F07DFE206720680421D0
:102FA00001F078FE000DE06404A92046FFF74EFD15
:102FB00000285ED04FF0805033E00120A064A06C68
:102FC000012807D12068002101F094FE10B14FF0D4
:102FD000805077E704984FF6FE76B0423CD8002543
:102FE000CCF210152068002101F084FE00287FF447
:102FF00069AF2068294601F089FE0028E7D12068E2
:10300000002101F047FE0499013104910499B14275
:1030100002D8B0F1FF3FE5DCC0F380701DE04FF057
:10302000806030B1012584F83450A16B0843A0635F
:103030001CE020684FF4007101F09AFEA8B12168ED
:1030400040F2FF52C0F240028A63A16B012508439F
:10305000A06384F8345009E000200499B1429ABF7B
:10306000606400204FF080702CE7002528460FB0E8
:10307000F0BD216D20680A04002301F009FF00283B
:10308000CFD194E88F00D4E90565CDE900760295AB
:1030900001F00AFE0020C4E72DE9F04F87B0044696
:1030A00042F600470068C4F201070026B8420696BF
:1030B000CDE904660396029602D007B0BDE8F08F12
:1030C00043F630000196C4F20200416902AD41F4BA
:1030D0000061416141694FF0020801F40061019112
:1030E0000199019601684FF0010B41F00401016064
:1030F00001684FF0030A01F0040101910199019662
:1031000001684FF00C0941F0080101600068294690
:1031100000F00800019001984FF4F850029007F574
:103120005C40CDF80C80CDF810B0CDF814A0CDF8EF
:103130001890FEF747FB042002A981E8010907F572
:1031400060402946CDE905A9FEF73CFB40F6341561
:10315000C2F200054FF4806A4FF4805046F25843A3
:10316000C5E904A004204FF000694FF480412022FB
:10317000C4F20203C5E902664FF4003B4FF40006B7
:103180004FF40018686203272846C5E90039C5E9ED
:103190000612C5F820B0C5E90A76C5F83080FEF7FA
:1031A00063F9002818BFFDF705FB46F25840256477
:1031B000AC63C4F2020040F694154830C2F2000538
:1031C0004021C5E9000905F10800002280E8060455
:1031D0004FF4805068614FF48040A8612020C5E919
:1031E000070B0420C5E909072846C5E90B68FEF767
:1031F0003BF9002818BFFDF7DDFA31200521002238
:10320000E563AC63FEF776FC3120FEF763FC07B0A4
:10321000BDE8F08FF0B587B0044689B194F834006A
:10322000012814D14FF0000CC4F838C0E06D1E46E0
:103230001344154683420DD9A06B40F0007002E0A4
:10324000A06B40F00060A063012007B0F0BD022039
:1032500007B0F0BD032084F834002368206CC3F865
:103260002CC0DF6B0A4640F22A313943D96345F25C
:103270005121C0F60001C16345F2C511C0F600013D
:10328000C0E9131C0168C0F808C00F6827F0C00728
:103290000F60770203F18001BB08FEF785F990B15A
:1032A0002068C16B21F49571C16340F2FF51C0F2F7
:1032B00040018163A06B40F08040A063012084F84E
:1032C000340007B0F0BD48F28C50C4F22520012133
:1032D0000160606C01284FF0FF3018BF6D02CDE92E
:1032E00001079020039002200490002005902068A0
:1032F000069101A901F0B6FC022E06D382202063BC
:103300002068294601F0ACFD05E08120206320689B
:10331000294601F0B1FD014600284FF000000DD014
:10332000226840F2FF53C0F240039363A26B114343
:10333000A163012184F834102063012007B0F0BD9F
:10334000FDF714B9FDF72AB9F0B587B0044691B17D
:1033500094F83400012814D14FF0000EC4F838E07E
:10336000E06D1E46134483420DD9A06B012740F047
:103370000070A0637EE0A06B012740F00060A063B6
:1033800078E0022776E0032084F834002068E36BBD
:10339000D4F844C0C0F82CE0C76B0D4640F21A21A7
:1033A0003943C16345F20131C0F60001D96345F2EA
:1033B000C511C0F60001BCF1010FD96418BF52025B
:1033C000022EC3F850E014D3A0212163114601F06E
:1033D0004BFEA8B1216840F2FF52C0F240028A635E
:1033E000A16B01270843A063002084F83470206398
:1033F00040E090212163114601F042FE0028E9D10E
:1034000048F28C50C4F2252001270760E06B40226F
:103410000368216882601A68760267F387121A606F
:1034200001F18002B3082946FEF7BEF898B1206882
:1034300040F21A22C16B9143C16340F2FF51C0F2C6
:1034400040018163A06B40F08040A063002084F8BD
:10345000347020630EE04FF0FF30CDE9010690207C
:1034600003900020CDE90400206801A9069701F02F
:10347000F9FB0027384607B0F0BD000070B538B141
:103480000446406A30B10020206104F1140007E0D6
:10349000012070BD6068B0F5827F03D004F11C008C
:1034A000002101600026A66294F8510020B9204650
:1034B00084F8506000F03CF8022084F8510094E851
:1034C0000F0001F48271056802F4044225F0400502
:1034D0000560114403F400622369114403F0020201
:1034E0006369114403F00102A369E569114403F41F
:1034F0000072114405F03802256A114405F080027B
:10350000A56A114305F4005211430160626A042167
:1035100001EA134102F0100211444160C16921F433
:103520000061C1610120666584F85100304670BDBC
:1035300070B586B041F20044C4F202040068A4F5FC
:10354000444200219042CDE90411CDE902110191DC
:1035500001D006B070BD43F630000091C4F2020005
:103560004269022642F480124261426901AD02F4CE
:1035700080120092009A0091026842F020020260DC
:10358000006800F02000009000984FF460700190F7
:10359000032004900520CDE90261059020462946CC
:1035A000FEF710F9402001900120CDE902002046ED
:1035B00029460496FEF706F906B070BD2DE9F043E2
:1035C00083B01E4615460F460446FEF7DFF994F811
:1035D00051108146012908D1002F4FF0010018BF7A
:1035E000002D0ED103B0BDE8F0836068B0F5827F96
:1035F0000DD1A06800284FF0020008BF0429F1D1C6
:10360000EAE7002EEED094F85000012803D1022002
:1036100003B0BDE8F083012084F8500094F8510015
:10362000002104281CBF052084F851006165A563B2
:10363000E687A6872763E6862068A68621646164FC
:103640000168490603D4016841F0400101606168E6
:10365000731EE268B1FA81F1B3FA83F3DDF82880D2
:1036600049095B09B2F5006F41EA030137D131B175
:1036700037F8021BC1602763E08E0138E08601261F
:1036800008F10105E08E10B9E08F00286CD02068A9
:10369000816889070CD5E18E51B1012E08D1216BCB
:1036A000002631F8022BC2602163E18E0139E186E8
:1036B0008168C9070AD0E18F41B1C068A16B0126BA
:1036C00021F8020BA163E08F0138E087FEF75EF975
:1036D000002DD7D0A0EB09004045D3D33AE039B153
:1036E00039780173206B01302063E08E0138E08669
:1036F000012608F1010500BFE08E08B9E08F98B3FC
:103700002068816889070DD5E18E59B1012E09D154
:10371000216B002609780173206B01302063E08E55
:103720000138E08620688168C9070BD0E18F49B174
:10373000C068A16B01260870A06B0130A063E08F08
:103740000138E087FEF722F9002DD5D0A0EB090063
:103750004045D1D3012084F85100002084F8500066
:10376000032003B0BDE8F083204602210122434636
:10377000CDF8009001F072FF70B1606D032540F04C
:10378000200060659DB320206065002084F8500013
:10379000012003B0BDE8F08340F20800C2F200004F
:1037A000006849F68171C1F25E61A0FB0101480D1C
:1037B0004FF47A71484302906068B0F5827F0BD174
:1037C0002046802100224346CDF80090002501F0DC
:1037D00045FF0028D1D1D5E7029830B102980138D1
:1037E0000290206880680006F6D40025CAE7A06829
:1037F00038B9002001902068C1680191806801906B
:103800000198012084F85100002084F85000606D78
:10381000002818BF012003B0BDE8F0837047000006
:1038200070470000002804BF0120704710B504460F
:1038300090F83D0028B9002084F83C00204600F0B4
:103840001FF8022084F83D002068211D02F05EF977
:10385000012084F8460084F83E0084F83F0084F894
:10386000400084F8410084F8420084F8430084F862
:10387000440084F8450084F83D00002010BD00009D
:1038800080B586B0006840F20042C4F20002002118
:103890009042CDE90411CDE9021101912FD0B0F190
:1038A000804F2AD1002043F640010090C4F202016B
:1038B0000A6842F001020A600A6802F001020092FE
:1038C000009A009051F8102C42F0010241F8102C9F
:1038D00051F8101C01F00101009100992021019183
:1038E0000221CDE902100320049001200590002060
:1038F000C4F2020001A9FDF765FF06B080BD43F6E2
:1039000040000091C4F202000168002241F002016F
:1039100001600068052100F00200009000981D2061
:10392000FEF7E8F81D2006B0BDE88040FEF7D2B8EB
:1039300090F83D1001291CBF01207047022180F83A
:103940003D10006841F2FF72C168C4F2000290426B
:1039500041F00101C1600DDC40F2FF71C4F20001D1
:10396000884215DCB0F1804F29D040F20041C4F20A
:10397000000122E040F2FF31C4F20101884212DC72
:1039800041F60001C4F20001884218D0002112E083
:1039900040F60001C4F20001884210D040F6004118
:1039A000C4F2000109E044F20001C4F201018842BE
:1039B00005D040F20041C4F20101884206D181687D
:1039C00001F00701062904BF00207047016841F09B
:1039D00001010160002070477047000070B5044687
:1039E0000068C5680669B10716D515F0020113D045
:1039F0006FF002010161012121778069800703D006
:103A00002046FFF7E9FF05E0204600F08DF820464C
:103A100000F08CF800202077700718D515F004000E
:103A200015D020686FF004010161022121778069BF
:103A300010F4407F03D02046FFF7CEFF05E020467C
:103A400000F072F8204600F071F80020207730076F
:103A500017D515F0080014D020686FF00801016137
:103A600004212177C069800703D02046FFF7B4FF07
:103A700005E0204600F058F8204600F057F80020F6
:103A80002077F00618D515F0100015D020686FF0DB
:103A90001001016108212177C06910F4407F03D033
:103AA0002046FFF799FF05E0204600F03DF820464C
:103AB00000F03CF800202077F00718BF15F0010057
:103AC00002D1300609D412E020686FF001010161D3
:103AD000204600F02DF8300609D515F0800006D0FC
:103AE00020686FF0800101612046FFF797FE7006A5
:103AF00009D515F0400006D020686FF04001016143
:103B0000204600F01FF8B00658BF70BD15F0200029
:103B100008D021686FF0200220460A61BDE870409D
:103B2000FFF77EBE70BD00007047000070470000C8
:103B300000680021C4F20101884218BF7047FDF7F8
:103B40002BBF0000704700007047000010B504460E
:103B50000068406994F84110212920D110F08000BC
:103B60001DD000BF206850E8050F216820F08000BC
:103B700041E80502002AF5D1A06B002818BFFDF727
:103B800059FB00BF206850E8030F216820F0C000F7
:103B900041E80302002AF5D1202084F84100206882
:103BA000406994F84210222939D110F0400036D0F3
:103BB000206850E8050F216820F0400041E8050228
:103BC000002AF5D1E06B002818BFFDF733FB00BFDA
:103BD000206850E8030F216820F4907041E8030248
:103BE000002AF5D1206850E8050F216820F0010077
:103BF00041E80502002AF5D1206B01280AD100BF57
:103C0000206850E8030F216820F0100041E803020B
:103C1000002AF5D1202084F84200002020630020F3
:103C200010BD000070470000B0B582B004460068C7
:103C30000168C368426901F02F05202D03F02005BB
:103C400006D12DB1204602B0BDE8B04002F09CB8CC
:103C50005FEA017C1EBF02F0010E03F4907212EBCA
:103C60000E0253D1226B012A05D111F0100218BFA8
:103C700013F0100236D10A0622D513F080021FD0AD
:103C800094F8411021293FD1A168B1F5805F03D19B
:103C90002169002900F04581216A4A1C22620978C5
:103CA0004160E18C01390A04E1842DD1C16821F021
:103CB0008001C160C16841F04001C16002B0B0BD87
:103CC000490621D513F040011ED0C16821F0400102
:103CD000C1602021204684F8411002B0BDE8B04008
:103CE00000F0BEBB00210191016801914168019182
:103CF00001994069400611D4A08DE18DE28D002A22
:103D000018BF884240F0DF8002B0B0BDC80718BFBE
:103D100013F4807049D148074DD453E0E06B01683B
:103D200049688AB2002AEFD0A38D9A42ECD2E1858D
:103D3000C069B0F5807F30D0206850E8030F21685B
:103D400020F4807041E80302002AF5D1206850E891
:103D5000050F216820F0010041E80502002AF5D195
:103D6000206850E8050F216820F0400041E8050276
:103D7000002AF5D1202084F842000020206300BFF3
:103D8000206850E8030F216820F0100041E803028A
:103D9000002AF5D1E06BFDF74DFA02206063A08D9B
:103DA000E18D401A81B22046B6E0606C40F001001F
:103DB0006064480706D5BEF1000F03D0606C40F088
:103DC00002006064880706D5BEF1000F03D0606C66
:103DD00040F004006064BCF1000F09D545EA0E0014
:103DE000B0FA80F0400903D1606C40F008006064D4
:103DF000606C00283FF488AF11F0200018BF002D40
:103E000002D0204601F0C0FF20684069616C00F0DC
:103E1000400001F00801401848D000BF206850E879
:103E2000030F216820F4907041E80302002AF5D1C5
:103E3000206850E8050F216820F0010041E80502E4
:103E4000002AF5D1206B01280AD100BF206850E874
:103E5000030F216820F0100041E80302002AF5D189
:103E6000202084F84200002020632068406940063A
:103E700023D500BF206850E8050F216820F04000DE
:103E800041E80502002AF5D1E06BB0B145F64141A9
:103E9000C0F600010165FDF70DFA00283FF434AFCC
:103EA000E06B016D02B0BDE8B04008472046FFF767
:103EB000B9FE0020606402B0B0BD204602B0BDE88B
:103EC000B040FFF7AFBE401A216851E8031F2268D7
:103ED00021F4907142E80313002BF5D1216851E8D9
:103EE000051F226821F0010142E80513002BF5D1DE
:103EF000202184F842100021216300BF216851E88D
:103F0000031F226821F0100142E80313002BF5D1B2
:103F1000022281B22046626302B0BDE8B040FFF7E2
:103F200013BE216A31F8022B6FF35F2242602162D7
:103F3000B7E60000002804BF0120704710B5044612
:103F400090F8410028B9002084F84000204600F095
:103F500021F8242084F841002068C16821F4005130
:103F6000C160204601F072FF2068016921F4904190
:103F70000161416921F02A014161C16841F40051A8
:103F8000C16000202021606484F8411084F8421050
:103F9000606310BD2DE9F04786B00446006844F226
:103FA0000041C4F2000100268842CDE90466CDE953
:103FB0000266019676D044F60001C4F20001884200
:103FC00000F0D98041F20001C4F20101884240F0C2
:103FD0004281002643F630000096C4F20200416997
:103FE00046F2280841F0100141614169C4F202081B
:103FF00001F01001009100990096016841F0010163
:104000000160006801A900F00100009000984FF4E1
:10401000C06001900220CDE9020603200490072031
:1040200005900020C4F20200FDF7CCFB40F6F41529
:1040300008F58360C2F200054FF0006A4FF4806912
:104040004FF48071C5E9000A4FF400372846C5E9EE
:104050000266C5E90496C5E90661C5E90876FDF77B
:1040600003FA002818BFFCF7A5FBE563AC6340F634
:10407000542508F59260C2F200054021C5E9000A06
:1040800005F1080080E842022846C5E90566C5E951
:1040900007676E62FDF7E8F900284FF0250640F04B
:1040A000CE80CEE043F630000096C4F202000169F3
:1040B00046F2280841F4003101610169C4F20208A6
:1040C00001F40031009100990096016841F001016E
:1040D0000160006801A900F00100009000980C2028
:1040E00001900220CDE902060320049007200590EC
:1040F0000020C4F20200FDF765FB40F6B42508F18C
:104100006000C2F200054FF0006A4FF480694FF47E
:104110008071C5E9000A4FF400372846C5E90266F8
:10412000C5E90496C5E90661C5E90876FDF79CF97D
:10413000002818BFFCF73EFBE563AC6340F614357E
:1041400008F17800C2F200054021C5E9000A05F136
:104150000800002280E806022846C5E90522C5E9D4
:1041600007276A62FDF780F900284FF0260618BF7E
:10417000FCF720FB65E0002643F630000096C4F211
:104180000200016946F2280841F4802101610169B9
:10419000C4F2020801F480210091009900960168A0
:1041A00041F002010160006801A900F002000090E6
:1041B00000984FF4406001900220CDE902060320F0
:1041C0000490072005900020C4F2020000F58060F2
:1041D000FDF7F8FA40F67435C2F200054FF0006AB8
:1041E0004FF480694FF400372846C5E9008AC5E9D5
:1041F0000266C5E90496C5E90666C5E90876FDF7D5
:1042000033F9002818BFFCF7D5FAE563AC6340F634
:10421000D43508F13000C2F200054021C5E9000A9A
:1042200005F1080080E842022846C5E90566C5E9AF
:1042300007676E62FDF718F94FF0270608B1FCF723
:10424000B9FA304605210022A563AC63FDF752FCA4
:104250003046FDF73FFC06B0BDE8F08770B582B090
:10426000044690F84200202809D113460A46002946
:104270004FF0010018BF002B04D102B070BD022026
:1042800002B070BD002622202663A262A385666468
:1042900084F842002168E06B45F6F14C45F6715E0A
:1042A00045F64D45C0F6000CC0F6000EC0F6000500
:1042B0000431C0E90FCEC0E91356FDF775F9019638
:1042C000206801680191406801900198206948B117
:1042D000206850E8030F216840F4807041E8030231
:1042E000002AF5D1206850E8050F216840F0010050
:1042F00041E80502002AF5D1206850E8050F216841
:1043000040F0400041E80502002AF5D1002002B04B
:1043100070BD000090F84230202B1CBF0220704777
:1043200000294FF0010318BF002A01D11846704739
:1043300000230363816222218285C285436480F861
:104340004210016921B10168CA6842F48072CA60F2
:1043500000680023416941F001014161C16841F0F9
:104360002001C16018467047704700007047000088
:104370002DE9F04381B0044690F8410020281CD17B
:10438000884600294FF0010066D01646002A63D007
:104390000020606421201D4684F84100FDF7F6FAF4
:1043A000A684E684A1680646B1F5805F01D1206944
:1043B00038B1C1464FF0000805E0022001B0BDE869
:1043C000F0834FF00009E08C48B36F1C0CE0B9F1AA
:1043D000000F1BD019F8010B21684860E08C0138F0
:1043E000E084E08CD8B100BF206800680006EED4FD
:1043F000002FF9D0FDF7CAFA01464FF0030045B38C
:10440000891BA94225D82068C068EDE738F8020B5F
:1044100021686FF35F2048604FF00009DEE72068F5
:104420000068400614D46F1C04E000BF20680068D8
:1044300040060DD4002FF9D0FDF7A8FA01464FF041
:10444000030035B1891BA94203D82068C068EDE795
:104450000020202184F8411001B0BDE8F083000065
:1044600070470000FEE7000010B586B00020059000
:10447000CDE90300CDE90100009043F63000C4F21D
:104480000200016841F6004441F0800101600068CB
:10449000C4F2020400F080000090009830200190E7
:1044A0000120CDE902000220049001A92046FDF779
:1044B00089F9204620210122FDF762FA20461021C9
:1044C0000122FDF75DFA06B010BD000070B541F69F
:1044D0000044C4F202042168054621F440612160D1
:1044E0002168002241F480602060204610210026CF
:1044F000FDF746FAE8B2C20920462021FDF740FA4E
:10450000022001F06DFD204610210122FDF738FA4E
:10451000022001F065FD204610210022FDF730FA4F
:10452000022001F05DFD6D00072E06F10106E1D3CA
:1045300070BD000010B541F60044C4F202042068CA
:10454000202120F4406020602068012240F4806037
:1045500020602046FDF714FA204610210122FDF7C5
:104560000FFA042001F03CFD204620210022FDF737
:1045700007FA042001F034FD204610210022BDE896
:104580001040FDF7FDB9000010B541F60044C4F23B
:1045900002042068202120F440602060206800226E
:1045A00040F4806020602046FDF7EAF920461021A3
:1045B0000022FDF7E5F9042001F012FD204620213C
:1045C0000122FDF7DDF9042001F00AFD204610214B
:1045D0000122BDE81040FDF7D3B90000B0B541F6A7
:1045E0000044C4F202042068202120F440602060CE
:1045F00020460122FDF7C4F9012001F0F1FC20461C
:1046000010210122FDF7BCF9012001F0E9FC002591
:1046100020462021FDF7A6F910B3FA2D05F101057A
:10462000F6D32068202120F440602060206800221A
:1046300040F4806020602046FDF7A2F9204610215A
:104640000022FDF79DF9042001F0CAFC204620213C
:1046500001220125FDF794F9042001F0C1FC00E0DE
:104660000025204610212A46FDF78AF92846B0BDCC
:1046700010B540F60C1046F20041C2F20000C4F240
:104680000001062200234FF0807480E80E0000F144
:104690000C014FF4E02C4FF4A00E81E80850846127
:1046A0008383FCF7F3FC002808BF10BDBDE8104071
:1046B000FCF780B880B582B0002043F6300101904D
:1046C000C4F202010A6842F480020A600A6802F435
:1046D00080020192019A00900868002240F40010C4
:1046E00008600868052100F40010009000980C2074
:1046F000FDF700FA0C20FDF7EDF90E200521002250
:10470000FDF7F8F90E20FDF7E5F91020052100224C
:10471000FDF7F0F91020FDF7DDF911200521002249
:10472000FDF7E8F91120FDF7D5F93A20052100221F
:10473000FDF7E0F93A20FDF7CDF9462005210022EA
:10474000FDF7D8F94620FDF7C5F93B2005210022E9
:10475000FDF7D0F93B20FDF7BDF9452005210022EA
:10476000FDF7C8F9452002B0BDE88040FDF7B2B9B9
:1047700081B044F24020C0F20F0000900098411E2A
:1047800000280091FAD14EF6FC50CEF200000168EC
:1047900041F08071016041F20000CEF20000002182
:1047A0004160016841F001010160406801B070475B
:1047B00080B548F6686040F29C01C0F60000C2F285
:1047C0000001FBF7FBFF41F22C21C2F2000108704F
:1047D00080BD000080B586B00A480DF1080C01903C
:1047E00008A0031D0ECB00698CE80E00059001A8FF
:1047F000002101F0F3FC40F29401C2F200010860D4
:1048000006B080BD608F000825580008FEFF00003C
:1048100000000000000800002DE9F04186B00027EC
:1048200043F630000597CDE90377CDE9017700978E
:10483000C4F20200016840F2004841F00101016049
:104840000168C4F2020801F001010091009900978B
:104850000168012241F0020101600168012401F0B8
:104860000201009100990097016841F00401016084
:10487000016801F00401009100990097016841F07E
:1048800008010160016801F008010091009900979A
:10489000016841F010010160016801F01001009110
:1048A00000990097016841F020010160016801F062
:1048B0002001009100990097016841F040010160DA
:1048C000016801F04001009100990097016841F0F2
:1048D00080010160016801F080010091009900975A
:1048E000016841F4807101600068402100F480702B
:1048F0000090009808F58050FDF742F808F5C05682
:10490000304630210122FDF73BF8404623210122A9
:10491000FDF736F80C2001ADCDE9010730462946F8
:104920000394FCF74FFF4FF40050CDE9010708F561
:10493000806029460394FCF745FF0320CDE901047C
:1049400002264046294603940496FCF73BFF2020AC
:10495000CDE9010440462946CDE90346FCF732FF84
:1049600006B0BDE8F081000010B586B040F6E44026
:1049700042F60001C2F20000C4F2000100227F23CF
:10498000FF2480E81E00C0E904228261FDF794FD47
:10499000002818BFFBF70EFF40F6E440C2F200000B
:1049A00000210024FDF712FD45F25051884231D01C
:1049B00042F21200CDE90044ADF8040040F6E440B4
:1049C000C2F2000001A90122CDE90444CDE902446C
:1049D0008DF80640FDF7DCFE002818BFFBF7EAFE65
:1049E00040F20430C2F22750009040F6E440C2F298
:1049F000000069460122FDF70FFE002818BFFBF7F3
:104A0000D9FE40F6E440C2F20000002145F25052C7
:104A1000FDF7E2FC06B010BD40F6045042F600413E
:104A2000C2F20000C4F201010022C0E90012C0E994
:104A30000222C0E9042282617047000010B582B0F2
:104A400040F6885045F20001C2F20000C4F20101B4
:104A50004FF48272002402234FF0010C4FF4007EC9
:104A600080E816000A21C0E90343C0E905CEC4610D
:104A7000C0E90844C0E90A41FEF700FD002818BF5C
:104A8000FBF798FEFF208DF8070040F688508DF860
:104A900006404FF47A74C2F200000DF107010DF1E7
:104AA000060201230094FEF789FD02B010BD00004C
:104AB00080B540F6B86041F20001C2F20000C4F2D5
:104AC000010100234FF00C0C4FF4E13280E80E009E
:104AD000C0E90333C0E905C3C361FFF72BFA00281F
:104AE00008BF80BDBDE88040FBF764BE80B540F6DE
:104AF000007044F20041C2F20000C4F20001002341
:104B00004FF00C0C4FF4165280E80E00C0E903334E
:104B1000C0E905C3C361FFF70DFA002808BF80BDD7
:104B2000BDE88040FBF746BE80B540F6487044F6CD
:104B30000001C2F20000C4F2000100234FF00C0C8F
:104B40004FF4E13280E80E00C0E90333C0E905C349
:104B5000C361FFF7EFF9002808BF80BDBDE88040C2
:104B6000FBF728BEFEE70000FEE7000010B586B0A8
:104B700000200590CDE90300CDE90100009043F647
:104B80003000C4F20200016841F0020101600068D7
:104B900001A900F00200009000984FF480500190AD
:104BA000012003900220049040F20040C4F2020071
:104BB000FCF708FEFFF758FCFFF7BCFC4020FFF7AE
:104BC00085FCFFF70BFD0446FFF7DEFC0CB106B0D9
:104BD00010BDFFF7AFFC4020FFF778FCFFF7FEFCAD
:104BE000FF20FFF773FCFFF7F9FCFFF7CDFC06B0E1
:104BF00010BD0000000000000000000000000000E8
:104C0000EFF30980BFF36F8F154B1A681EF0100F7A
:104C100008BF20ED108A20E9F04F10602DE909004F
:104C20004FF0500080F31188BFF34F8FBFF36F8FA9
:104C300002F034FD4FF0000080F31188BDE8090058
:104C400019680868B0E8F04F1EF0100F08BFB0EC0C
:104C5000108A80F30988BFF36F8F704700BF00BFD1
:104C6000940F002080B5024691E80950506293628B
:104C700008694EEA0C0318434969D36A084323F0D4
:104C8000F70101430020D16280BD0000006800F000
:104C900003007047084440697047000040F6045024
:104CA000C2F20000FDF7BABF10B58446DDE902404C
:104CB000114319432143DDF810E00843DCF80410E8
:104CC00047F6FF6240EA0E00914301430020CCF812
:104CD000041010BD0146032200200A607047000046
:104CE000D0F8800070470000096802460020C2F832
:104CF000801070478160C36840F2774161F30B0315
:104D0000372141F28832C36000F0C6B941F000415A
:104D100041F480118160C16840F2694262F30B0185
:104D2000C16040F20801C2F20001096844F6D352A2
:104D3000C1F26202A1FB0212510A41F288325143D0
:104D4000C94300BF013124BF4FF000407047426BA0
:104D500012F0450FF6D012F40062F3D1416B042239
:104D600011F0040108BFC5228263084670470000A5
:104D70008160C3684FF48A6161F30B03102141F233
:104D80008832C36000F088B98160C36840F2464150
:104D900061F30B03062141F28832C36000F07CB955
:104DA00000218160C1684FF4806262F30B01C16031
:104DB00040F20801C2F20001096844F6D352C1F280
:104DC0006202A1FB0212510A41F288325143C943E7
:104DD000013124BF4FF000407047426B1206F7D5F7
:104DE000C5218163002070474FF4D5718160C1688F
:104DF0004FF4896262F30B01C16040F20801C2F214
:104E00000001096844F6D352C1F26202A1FB02120A
:104E1000510A41F288325143C94300BF013124BFD6
:104E20004FF000407047426B12F0450FF6D012F47D
:104E30000062F3D1416B490709D4416BC90709D11D
:104E4000416B49064FF0000107D5402204E00422DF
:104E5000042101E00122012182630846704700001D
:104E60008160C36840F2524161F30B03122141F2A9
:104E70008832C36000F010B98160C36840F25141CC
:104E800061F30B03112141F28832C36000F004B9D1
:104E90008260C36840F2474161F30B03072141F28E
:104EA0008832C36000F0F8B800218160C16840F228
:104EB000C24262F30B01C16040F20801C2F200017C
:104EC000096844F6D352C1F26202A1FB0212510AF0
:104ED00041F288325143C943013124BF4FF00040B1
:104EE0007047426B12F0450FF6D012F40062F3D116
:104EF000416B490706D4416BC90705D1C5218163C0
:104F000000207047042100E00121816308467047BA
:104F10008160C16840F2C94262F30B01C16040F296
:104F20000801C2F20001096844F6D352C1F26202DC
:104F3000A1FB0212510A41F288325143C94300BF1A
:104F4000013124BF4FF000407047426B12F0450F13
:104F5000F6D012F40062F3D1416B490706D4416BDD
:104F6000C90705D1C521816300207047042100E0F5
:104F7000012181630846704700218160C36840F2C7
:104F8000734161F30B03332141F28832C36000F0B7
:104F900083B800008160C36840F24D4161F30B03A8
:104FA0000D2141F28832C36000F076B800228260A1
:104FB000C26840F2434363F30B02C26040F208024E
:104FC000C2F20002126844F6D353C1F26203A2FB9C
:104FD00003235A0A41F288335A43D243013224BF91
:104FE0004FF000407047436B13F0450FF6D013F4B9
:104FF0000063F3D1426B52071BD4426BD2071AD124
:105000000269D2B2032A1CBF01207047C522826305
:10501000406910F4604F12D0410444BF4FF4005077
:10502000704700044FF4805158BF4FF48031084658
:105030007047042100E00121816308467047000C9D
:10504000088000207047000000218160C36840F2A2
:105050004C414EF2001261F30B03C0F2F5520C21E9
:10506000C36000F019B800008160C36840F2594184
:1050700061F30B03192141F28832C36000F00CB8D0
:105080008160C3684FF48B6161F30B03182141F217
:105090008832C360AFF3008040F20803C2F200031D
:1050A000D3F800C044F6D353C1F26203ACFB033C17
:1050B00003464FEA5C205043013000BF013804BF73
:1050C0004FF0004070475A6B12F0450FF6D012F4C3
:1050D0000062F3D1586B400742BF042098637047C9
:1050E000586BC0071EBF012098637047C5209863A6
:1050F0001869C0B288421CBF0120704758694EF23F
:105100000801CFF6FF51084204BF00207047002875
:1051100044BF4FF000707047410044BF40207047CB
:10512000810044BF80207047C10044BF4FF48070AD
:105130007047010144BF4FF400707047410144BF04
:105140004FF480607047C10144BF4FF40060704766
:10515000010244BF4FF480507047410244BF4FF4F6
:1051600000507047810244BF4FF480407047C10235
:1051700044BF4FF400407047410344BF4FF4003038
:105180007047810344BF4FF480207047C10344BF80
:105190004FF400207047010444BF4FF48010704763
:1051A000410444BF4FF400107047810444BF4FF4E2
:1051B0008000704700074FF4000058BF4FF4803064
:1051C00070470000B0B5846BFCF786F8022808BF72
:1051D000B0BDD4E90F10426D486D012A18BF0128F7
:1051E00026D1206840F2FF52C0F24002216D826356
:1051F000C26B090422F49D72C263A26B42F080422A
:10520000A263FFF7C7FEC0B105466FF0040015B1F9
:10521000A16B2943A163012805D82068FFF714FF7B
:10522000A16B0843A063012084F8340000202063B0
:105230002046BDE8B040FDF707BC206800210025EE
:10524000FFF728FDC0F343200538002DE0D1E2E749
:1052500010B5846B206B822809D12068FFF7F4FE1B
:1052600028B1A16B0843A0632046FDF7EDFB206841
:10527000C16A21F00801C16240F23A518163012004
:10528000002184F8340020462163BDE81040FEF779
:1052900057B80000B0B5846B40F23A52216D2068D7
:1052A00009048263FFF776FED0B105466FF0040073
:1052B00015B1A16B2943A163012184F834100021A9
:1052C0000128216305D82068FFF7BEFEA16B0843C3
:1052D000A063A06B78B12046BDE8B040FDF7B4BB39
:1052E000206800210025FFF7D5FCC0F343200538D6
:1052F000002DDED1E0E72046BDE8B040FDF718BB49
:10530000806B0068C16B41F48071C163704700001D
:10531000B0B5846B40F23A52216D20680904826373
:10532000FFF738FED0B105466FF0040015B1A16B50
:105330002943A163012184F834100021012821634D
:1053400005D82068FFF780FEA16B0843A063A06B1F
:1053500078B12046BDE8B040FDF776BB206800215B
:105360000025FFF797FCC0F343200538002DDED160
:10537000E0E72046BDE8B040FDF7DABA2DE9F0419C
:1053800088B00C460546FCF701FB0646002128685C
:10539000019100910821FFF7EBFC014600283FD165
:1053A000296D28680904FFF7A5FC0146C0BB4FF032
:1053B000FF300290082003903020049002200590D6
:1053C0000020069001212868079102A9FFF74AFCF6
:1053D0002868FFF7D1FD014610BB0027E8460BE027
:1053E000FFF77EFC48F827000137FCF7CFFA801B57
:1053F00001304FF0004113D02868416B11F02A0FA3
:1054000005D1416B8902EBD4416B8904EDD4416B2A
:1054100009075CBF416B5FEA815105D508218163B3
:10542000084608B0BDE8F081416B89070DD4416B97
:1054300089060DD440F23A518163DDE9001000BACB
:1054400009BAC4E900010021EAE702218163E7E724
:1054500020218163E4E70000B0B582B040F204048B
:10546000C2F200040120207000F00AFE28B3FBF70E
:1054700049F850B901202070FBF738F818B92078A6
:1054800000F0FE002070207820702078012814D0D1
:1054900040F2A005C2F20005286840B90220019040
:1054A0000A2000906846002100F000FE286028686D
:1054B00018B9207840F001002070207802B0B0BD0B
:1054C00010B588B040F20400C2F200000078C007B6
:1054D0000CD1084603290CD81446DFE800F00B0273
:1054E0000D136846FAF7FAFF069810E0032008B09B
:1054F00010BD042008B010BD6846FAF7EFFF07980A
:10550000208005E06846FAF7E9FF0798400A206026
:10551000002008B010BD00002DE9F04383B098468C
:1055200091460E4600F0BAFD074647F22F5400BFE1
:1055300000F0B4FDC51BA5420DD8FAF7D7FF00282F
:10554000F6D147F22F50854205D8304649464246AB
:10555000FAF7FEFF18B1012003B0BDE8F08340F276
:10556000A000C2F200000168684647F2305200F025
:10557000A3FD009810284FF0010012D101990129D4
:105580000FD100F08BFD044647F22F5500F086FD49
:10559000001BA842DFD8FAF7A9FF00284FF000004F
:1055A000F4D103B0BDE8F08310B540F20404C2F2B8
:1055B000000401202070FAF799FF08B1207810BD8F
:1055C000207800F0FE002070207810BD2DE9F04317
:1055D00083B0984691460E4600F060FD074647F2BC
:1055E0002F5400BF00F05AFDC51BA5420DD8FAF795
:1055F0007DFF0028F6D147F22F50854205D830466E
:1056000049464246FAF7BCFF18B1012003B0BDE895
:10561000F08340F2A000C2F200000168684647F241
:10562000305200F049FD009810284FF0010012D1CF
:10563000019902290FD100F031FD044647F22F55A0
:1056400000F02CFD001BA842DFD8FAF74FFF00281E
:105650004FF00000F4D103B0BDE8F0832DE9F0472E
:1056600082B00A9C984615460E468146FCF78EF994
:10567000201A00EB0804FCF789F940F20801C2F295
:1056800000010968C1F3CB3161430191D9F80010E1
:1056900089683140891BB1FA81F14909A94203D1D6
:1056A000002002B0BDE8F087824608F1010709E05A
:1056B000D9F8000080683040801BB0FA80F04009C3
:1056C000A842EDD0002FF3D0FCF760F9A0EB0A0060
:1056D000A04207D201980199002808BF0446481E3D
:1056E0000190E5E7D9E900014268B1F5827F22F037
:1056F000E00242600BD1D9F80810B1F5004F02D09A
:10570000B1F5806F03D1016821F040010160D9F843
:105710002810B1F5005F07D1016821F40051016044
:10572000016841F400510160012089F85100002016
:1057300089F85000032002B0BDE8F08700000000A7
:10574000074B19680868B0E8F04F80F30988BFF389
:105750006F8F4FF0000080F31188704700BF00BFCB
:10576000940F00202DE9F04140F2B404C2F200048D
:105770002078002818BFBDE8F08140F60070C2F222
:105780000000FEF7E3F940F6B420C2F20000006822
:1057900040F2C006C2F20006476830783A282FD19E
:1057A000C7F5007516FA85F010F8020C0D2827D100
:1057B0001FFA85F808EB060010F8010C0A281FD123
:1057C000701C00F0EBFB7E281AD1F01C00F0E6FB09
:1057D000411E052905D8B8B240F2EF1188420CD01D
:1057E0000EE00F3801280BD806F10D0000F0D6FBB3
:1057F000132101EB4000404502D10120658020705B
:10580000207808B1BDE8F08140F6007040F2C00198
:10581000C2F20000C2F200014FF40072BDE8F04194
:10582000FEF71CBDADF5127D11AC20464FF40071A2
:10583000FAF730FD40F2DC6940F60410C2F20009CC
:10584000C2F200004946FBF7FBF840F2C02040F6E8
:105850004871C2F20000C2F20001FAF777FDFFF7CB
:1058600085F955480DF1340C0C9053A0031D0ECB57
:1058700000698CE80E0010900CA8002100F0AEFC2E
:1058800040F28C01C2F20001504A08604FA0031D93
:1058900007920ECB00690DF1200C8CE80E000B90E6
:1058A00007A8002100F09AFC40F2900140F288081D
:1058B00040F2A40B48F6027AC2F20001C2F20008DC
:1058C00091AFC2F2000BC0F6000A08602AE004A8FB
:1058D000FBF788FABDF81800ABF80800DDE90460B2
:1058E000CBF80400CBF8006081B29BF80100F6B25F
:1058F0009BF806209BF807309BF80250CDE900602A
:1059000048F61370C0F60000029503F033F8204605
:1059100000F07EFC5046214603F02CF84FF47A70DC
:1059200000F09EFBD8F800003946002202F014FA7D
:105930000128F3D19DF84402022818D00028EDD1A7
:105940009DF845020028C2D1484640F21A21FAF7D4
:10595000A1FC0120A9F80002002089F8020240F60B
:105960000410C2F200004946FBF7D6F8D6E79DF8CE
:1059700045020028CBD104A8FBF734FABDF8180083
:10598000ABF80800DDE90460CBF80400CBF8006058
:1059900081B29BF80100F6B29BF806209BF8073015
:1059A0009BF80250CDE9006048F61370C0F6000085
:1059B000029502F0DFFFB1E7518F0008C105000832
:1059C000010000000000000000010000418F0008FD
:1059D000D5060008000000000000000000010000E3
:1059E00080B54FF0500080F31188BFF36F8FBFF385
:1059F0004F8F02F03BFD30B14EF60450CEF2000066
:105A00004FF080510160002080F3118880BD0000BC
:105A100010B592B006AC20463021FAF73BFC0020CE
:105A200043F640010590CDE90300CDE90100009067
:105A3000C4F202010A6842F080520A60096801F06B
:105A4000805100910099009047F20000C4F20000DC
:105A5000016841F44041016000684FF4800100F4A6
:105A60004040009000980D2006904FF48030079041
:105A700001200D91192108900B9002200E914FF4F6
:105A8000B4710C90CDE90F10082011902046FCF75E
:105A9000FBFA10B172B600BFFEE7FCF767F810B171
:105AA00072B600BFFEE70F20019002200290002096
:105AB00003904FF4A05004904FF48050059001A83B
:105AC0000521FCF7B5F910B172B600BFFEE712B0C0
:105AD00010BD00004EF68850CEF20000016841F47F
