:020000040800F2
:10000000603B0120850200082D4E00080D470008C6
:10001000294E0008F1060008956D00080000000058
:10002000000000000000000000000000C501000802
:100030000D0A000800000000210200080564000805
:100040009F0200089F0200089F0200089F0200080C
:100050009F0200089F020008850A00089F0200080E
:100060009F0200089F0200089F0200089F020008EC
:10007000AD0700089F020008BD0700089F020008A6
:10008000CD070008DD0700089F0200089F02000856
:10009000F50600089F0200089F0200089F02000862
:1000A0009F020008156500089F0200089F020008D3
:1000B00025650008356500089F0200089F020008BA
:1000C0009F0200089F0200089F0200089F0200088C
:1000D0009F020008396D0008496D0008816D000815
:1000E0009F0200089F0200089F0200089F0200086C
:1000F0009F0200089F0200089F0200089F0200085C
:100100009F020008BD4F00089F0200089F020008E0
:100110009F0200089F0200089F0200089F0200083B
:100120009F0200089F020008ED070008FD07000875
:100130009F020008110A00089F0200089F020008A1
:100140009F0200089F0200089F0200089F0200080B
:100150009F0200080D0800081D0800089F02000803
:100160009F0200089F0200089F0200089F020008EB
:100170009F0200089F0200089F0200080000000084
:100180009F0200089F0200089F0200089F020008CB
:100190009F0200089F0200089F0200089F020008BB
:1001A0009F0200089F0200089F020008DFF810D09D
:1001B00000F01CF900480047C1730008AFF300804D
:1001C000603B01202C4B19680868B0E8F04F80F3C1
:1001D0000988BFF36F8F4FF0000080F311887047DC
:1001E0000000000008480068006880F308884FF0AD
:1001F000000080F3148862B661B6BFF34F8FBFF37F
:100200006F8F00DF00BF00BF08ED00E0DFF80C00DB
:10021000016841F470010160704700BF88ED00E0A3
:10022000EFF30980BFF36F8F134B1A681EF0100FA6
:1002300008BF20ED108A20E9F04F106009B44FF09C
:10024000500080F31188BFF34F8FBFF36F8F08F01A
:1002500039FC4FF0000080F3118809BC1968086868
:10026000B0E8F04F1EF0100F08BFB0EC108A80F31A
:100270000988BFF36F8F704720010020EFF30580DE
:10028000704700000648804706480047FEE7FEE743
:10029000FEE7FEE7FEE7FEE7FEE7FEE7FEE7FEE736
:1002A00001650008AD0100082DE9F05F054600205A
:1002B00092469B4688460646814640241BE02846D7
:1002C00041464746224600F080F853465A46C01A37
:1002D000914110D311461846224600F067F82D1AB6
:1002E00067EB01084F4622460120002100F05EF82E
:1002F00017EB00094E41201EA4F10104DFDC484643
:1003000031462A464346BDE8F09F10B5431A934252
:1003100009D28318881803E010F8011D03F8011DA5
:10032000521EF9D210BD40EA01039B0703D009E039
:1003300008C9121F08C0042AFAD203E011F8013BD1
:1003400000F8013B521EF9D210BDD2B201E000F814
:10035000012B491EFBD270470022F6E710B5134669
:100360000A4604461946FFF7F0FF204610BD421C1E
:1003700010F8011B0029FBD1801A7047034611F8C1
:10038000012B00F8012B002AF9D11846704730B52F
:1003900005460020034600E05B1C934205D2EC5C5E
:1003A000C85C201A01D1002CF6D130BD202A04DB14
:1003B000203A00FA02F1002070479140C2F1200378
:1003C00020FA03F3194390407047202A04DB203AB7
:1003D00021FA02F00021704721FA02F3D040C2F165
:1003E000200291400843194670470000064C074D13
:1003F00006E0E06840F0010394E8070098471034F5
:10040000AC42F6D3FFF7D6FE089D0008289D0008F1
:1004100070B58C1810F8015B15F0070301D110F8C6
:10042000013B2A1106D110F8012B03E010F8016BF3
:1004300001F8016B5B1EF9D12B0705D40023521E76
:100440000DD401F8013BFAE710F8013BCB1A921CDE
:1004500003E013F8015B01F8015B521EF9D5A142DC
:10046000D8D3002070BD000070B504460D4614B10D
:100470000DB1286818B900BF00BF012070BD40F25F
:100480001C412046FFF768FF062084F8190225600A
:100490000A480068C06840F0200008490968C86040
:1004A0000122211D054804F0B9F818B100BF00BFB2
:1004B0000120E3E700BF00BF0020DFE7B008002015
:1004C00070B505464C480068A8427DD14A48B0F84E
:1004D000040218B909F0D8F8484908604648B0F84D
:1004E0000402401C4449A1F804020846B0F8040282
:1004F000B0F5FF7F14DD0846B0F80422011D00F2BC
:100500001A20FFF702FF3C48B0F80412A0F81A14B2
:100510000120394981F81802042081F8190270BDC0
:10052000002438E03448B0F80402354931F814109A
:1005300088422EDB304BB3F804621B1D3344304E2F
:1005400036F81460981B2E4B33F814202D4B53F8BB
:100550002410FFF71CFFE0B90CB9002004E0012CC7
:1005600001D1012000E00220234981F81902084648
:10057000B0F80422011D00F21A20FFF7C6FE1E4843
:10058000B0F80412A0F81A1401201B4981F81802CF
:10059000C5E7601CC4B2032CC4DB1748B0F80402E2
:1005A00000281EDD09F070F814490968401AB0F5FA
:1005B000FA7F16D31048B0F80422011D00F21A2069
:1005C000FFF7A3FE0C4800E014E0B0F80412A0F816
:1005D0001A140120084981F81802052081F819022F
:1005E0009DE70548B0F80422001D111801220648B5
:1005F00004F014F800BF92E7E8010020000000209A
:10060000D89B000804000020B008002070470000BC
:1006100010B504462146024802F0F2FC10BD00006D
:10062000E80B002010B5044802F0FDFC042801D0BE
:10063000012010BD0020FCE7E80B002010B50024CD
:1006400000F014F8012801D0012010BD064802F086
:100650000BFE044634B94FF40061034802F086FBF8
:1006600000B101242046F0E7E80B002008B5012086
:1006700000909DF8000008BD2DE9F04104460D46AC
:100680001646002733462A462146044802F028FF32
:1006900000B101273846BDE8F0810000E80B0020DA
:1006A00010B5002201210248006806F039FF10BD94
:1006B000E80000202DE9F04104460D4616460027CB
:1006C00033462A462146044802F0BCFF00B1012708
:1006D0003846BDE8F0810000E80B002010B500228C
:1006E00002210248006806F01BFF10BDE800002050
:1006F00000BFFEE710B5024800F0D3FC10BD0000BB
:10070000640B00201CB500220221042008F001FB2C
:1007100023490860012008F0EBFA2249086008F03C
:10072000ADFF019000BF002633E01F4800EB061428
:10073000A188206801F0A4FA0546E079A84207D014
:100740000DB1012000E00020E07108F097FFA060EB
:1007500008F094FFA168401AE168884217D3A07995
:10076000A84214D00DB1012000E00020A0718DF846
:1007700000600DB1012000E000208DF80100002391
:100780001A4669460648006808F03AFB00BF701C2C
:10079000C6B2042EC9DB0A2101A806F044FEC2E756
:1007A0001C000020240000202800002010B5024872
:1007B00000F018FE10BD0000780A002010B50248B5
:1007C00000F010FE10BD0000D80A002010B502484D
:1007D00000F008FE10BD0000B809002010B5024866
:1007E00000F000FE10BD0000180A002010B50248FD
:1007F00000F0F8FD10BD0000F808002010B5024818
:1008000000F0F0FD10BD00006C0C002010B5024897
:1008100000F0E8FD10BD0000CC0C002010B502482F
:1008200000F0E0FD10BD00005809002001460878E6
:1008300010381823B0FBF3F20848805CC865032A1F
:1008400005D908686FF30900001D886503E0086892
:100850006FF309008865886D70470000989C000858
:10086000014600208A6A8B69CBB932B1012A0DD0CA
:10087000022A03D0032A10D10EE000BFCB6A03F096
:100880008073B3F1807F00D1012007E0CB6AB3F120
:10089000C07F00D1012001E000E000BF34E08B699F
:1008A000B3F5005F1AD132B1012A07D0022A03D072
:1008B000032A11D10AE000BF01200EE0CB6A03F049
:1008C0008073B3F1807F00D1012006E0CB6AB3F1E1
:1008D000C07F00D1012000E000BF15E032B1012A45
:1008E00005D0022A04D0032A0CD103E000BF00BFC8
:1008F000012008E0CB6A03F08073B3F1807F00D160
:10090000012000E000BF00BF704730B504682468D4
:1009100024F4802405682C60046863608468402C9B
:1009200004D10468A2600468E16003E00468A16087
:100930000468E26030BD000008B5002202210846CC
:1009400008F0E7F92F49086008F098FE009000BF12
:1009500000BF00254FE005EB85002B4901EB80042B
:10096000607C2074A07930B101280CD0022812D00C
:1009700003283DD120E0A1880122206801F092F9EE
:100980000120607434E0A1880022206801F08AF917
:10099000002060742CE0A188206801F079F9607C67
:1009A00008B9012000E000206074607C08B90120D3
:1009B00000E00020A0711BE04FF47A71A068B1FB49
:1009C000F0F04843B0FBF1F608F058FEE168401A39
:1009D000B0420CD3A188206801F05AF9607C08B9B4
:1009E000012000E00020607408F048FEE06000BFD5
:1009F00000BF681CC5B2022DADDB0A21684606F0B7
:100A000012FDA6E71C0000206800002070470000CF
:100A100010B5024800F0EEFE10BD0000C05E0020E0
:100A20000020704710B501F043F910BD10B5024821
:100A300000F0A4FF002010BDC05E002070B5044689
:100A40000D46164633462A462146044800F057FF15
:100A500010B14FF0FF3070BD0020FCE7C05E0020F9
:100A600070B504460D46164633462A4621460448CC
:100A700000F0BBFF10B14FF0FF3070BD0020FCE76D
:100A8000C05E002010B5012000F0E4FF10BD72B67A
:100A900000BFFEE730B504460D4600222946204639
:100AA00000F002F830BD0000F0B503460125002437
:100AB0001148407A01281CDA00200F4E767A0E4F3A
:100AC000B8553846467A001D40F82630001F467A51
:100AD000083082553E46707A461C7E72044604F108
:100AE000300008703A2048702F2088700020C870AD
:100AF00000252846F0BD0000542B012001460020AF
:100B0000002203E08B5C034498B2521CB2F5007FD4
:100B1000F8D391F81722024490B270472DE9F041C2
:100B200004460D46002667680CB1206820B900BF56
:100B300000BF0520BDE8F081172D03D900BF00BF1D
:100B40000420F7E700BF4CF25031204600F092F944
:100B5000064606B121E01448006820F47E70124970
:100B6000086008460068022141EAC50141F40071AD
:100B700008430D4908600846006840F4803008606A
:100B80004CF25031204600F075F9064606480068E0
:100B900020F002000449086000BF16B1781E071E4D
:100BA000D1D13046C6E70000103C02402DE9F047A5
:100BB00004460D4617460CB1206820B900BF00BF9F
:100BC0000520BDE8F087B5F1006F03D3E819B0F157
:100BD000026F03D900BF00BF0420F2E74CF250318E
:100BE000206808F0E9FB012803D000BF00BF062001
:100BF000E7E7284600F03AF88046E919481E00F079
:100C000035F8064608F1010008B1701C48B9002308
:100C10001A461946206808F0F3F800BF00BF042008
:100C2000CFE74FF00009C24615E051462046FFF7D6
:100C300075FF8146B9F1000F09D000231A46194605
:100C4000206808F0DDF800BF00BF4846B9E700BFE4
:100C500000BF0AF1010AB245E7DD00231A46194632
:100C6000206808F0CDF80020ABE700000146B1F1A4
:100C7000006F02D3B1F1026F02D34FF0FF30704723
:100C800000200EE0094A52F820208A4208D817288E
:100C900005D0064B421C53F822208A4200D9EEE7C9
:100CA000401C1828EED34FF0FF30E8E7E09B000827
:100CB00070B504460E461CB900BF00BF052070BDCC
:100CC000012008F015F82060206808B90120F6E737
:100CD0000320606011481249086012480860F02043
:100CE0000F49083108603146204600F09BF8054660
:100CF00085B1072D0AD100BF00BF3146204600F064
:100D000045F838B100BF00BF2846D8E700BF00BF94
:100D10002846D4E700BF00BF0020D0E72301674585
:100D2000043C0240AB89EFCDF0B506460D460EB14E
:100D300002B11BB900BF00BF0520F0BDB5F1006FC7
:100D400003D3E818B0F1026F03D900BF00BF04203D
:100D5000F3E7002116E06C58994200D25454481C25
:100D6000984202D2C4F307271754881C984202D233
:100D7000C4F307471754C81C984202D2200ECF1C58
:100D8000D055091D9942E6D30020D6E770B5ADF5E0
:100D9000087D06460C4606B12CB900BF00BF0520F1
:100DA0000DF5087D70BD552084F817022046FFF729
:100DB000A5FEA4F8180240F21A2219493046FFF79E
:100DC000F5FE05461DB100BF00BF2846E8E740F22A
:100DD0001A2322461249304600F07EF805461DB11E
:100DE00000BF00BF2846DBE740F21A2301AA0C49E6
:100DF0003046FFF799FF05461DB100BF00BF2846EA
:100E0000CEE701A8FFF77AFEBDF81C12884203D096
:100E100000BF00BF0720C3E700BF00BF0020BFE73F
:100E20000000040870B506460C4606B11CB900BFA8
:100E300000BF052070BD40F21A2322460C493046FF
:100E4000FFF772FF05461DB100BF00BF2846F1E75E
:100E50002046FFF753FEB4F81812884203D000BFB3
:100E600000BF0720E6E700BF00BF0020E2E7000068
:100E70000000040870B506460C4608F0FFFB054666
:100E800015E008F0FBFB411B4FF47A7060434FF410
:100E90007A72B0FBF2F0814201D9032070BD4FF0AD
:100EA00080500B490860BFF34F8FBFF36F8F094825
:100EB000006800F480300028E3D10648006800F0A4
:100EC000F00018B100BF00BF0120E7E70020E5E710
:100ED00004ED00E00C3C02402DE9FC5F06460F46A5
:100EE000154698464FF00009706801902EB13068A1
:100EF00018B115B1B8F1000F04D100BF00BF052033
:100F0000BDE8FC9FB7F1006F04D307EB0800B0F118
:100F1000026F03D900BF00BF0420F1E74CF250314B
:100F2000306808F049FA012803D000BF00BF06204E
:100F3000E6E700BF4CF250313046FFF79BFF814699
:100F4000B9F1000F00D05CE03648006820F4407032
:100F5000344908600846006840F2012108433149DD
:100F6000086028F00300009000241DE0295D601C4B
:100F7000285C41EA0021A01C285C41EA0041E01CF9
:100F8000285C41EA006A47F804A04CF25031304630
:100F9000FFF770FF8146B9F1000F04D000BF00BF1A
:100FA00000BF00BF03E0241D00988442DED300BFD1
:100FB00008F0030BB9F1000F1CD1BBF1000F19D0E1
:100FC0004FF0FF3A00200BE0C200FF2191402AEAD7
:100FD000010A2118695CC200914041EA0A0A401CDA
:100FE0005845F1D347F804A04CF250313046FFF792
:100FF00041FF81460B48006820F001000949086064
:1010000000BFB9F1000F04D00198401E01900028E4
:1010100090D100231A461946306807F0F1FE484681
:101020006EE70000103C024010B58AB00446002272
:1010300002A91A4801F0FCFC08B1FFF728FD0022C4
:1010400001A9164801F0CEFC08B1FFF720FD9DF87C
:10105000070000F5FA60ADF820009DF805008DF856
:1010600022009DF806008DF823009DF804008DF8FD
:1010700024009DF808008DF81C009DF809008DF8EB
:101080001D009DF80A008DF81E0007982060089842
:101090006060BDF8240020810AB010BD380B00202C
:1010A00070472DE9F05F04460025206846692068F6
:1010B000D0F80490206887682068D0F80CA02068D9
:1010C000D0F810B02068D0F8188006F00100002891
:1010D00055D007F00100C0B101202168886007F0F9
:1010E000020018B1204600F009F90EE007F00400F4
:1010F00010B145F4006508E007F0080010B145F4B0
:10110000805502E0204600F0F8F807F48070C8B17E
:101110004FF480702168886007F4007018B1204691
:1011200000F0EEF80EE007F4806010B145F40055D1
:1011300008E007F4006010B145F4804502E0204665
:1011400000F0DDF807F48030C8B14FF4803021683A
:10115000886007F4003018B1204600F0D3F80EE0A4
:1011600007F4802010B145F4004508E007F40020A2
:1011700010B145F4803502E0204600F0C2F806F0D8
:10118000080038B10AF0100020B145F400751020B5
:101190002168C86006F0040040B10AF0080028B1D8
:1011A00008202168C860204600F0A2F806F002007E
:1011B00038B12068C06800F0030010B1204600F08C
:1011C00098F806F0400038B10BF0100020B145F45B
:1011D000806510202168086106F0200040B10BF006
:1011E000080028B1082021680861204600F082F834
:1011F00006F0100038B12068006900F0030010B15B
:10120000204600F078F806F4003040B109F01000F4
:1012100028B1102021684860204600F06DF806F4DF
:10122000803040B109F0080028B1082021684860EA
:10123000204600F068F806F4004088B309F0040086
:1012400078B306F4807020B108F0010008B145F0D1
:10125000010506F4007020B108F0020008B145F065
:10126000020506F4806020B108F0040008B145F0E2
:10127000040506F40060A0B108F0700088B108F021
:101280007000402817D006DC10280BD020280CD086
:10129000302819D10CE0502810D0602814D110E06B
:1012A0001DE019E045F008050FE045F010050CE0E1
:1012B00045F0200509E045F0400506E045F08005D1
:1012C00003E045F4807500E000BF00BF206880693E
:1012D00020F07000216888610420216848602DB1E9
:1012E000606A284360622046FFF7DAFEBDE8F09F9F
:1012F0007047704770477047704770477047704736
:10130000704770477047704770B50446A56D00F090
:10131000CFFC064694F83500022808D0802060658E
:1013200000BF002084F8340000BF012070BD206899
:10133000006820F01600216808602068406920F0ED
:10134000800021684861206C08B9A06C28B1206831
:10135000006820F00800216808602068006820F01C
:1013600001002168086010E000F0A2FC801B052845
:101370000BD920206065032084F8350000BF0020D1
:1013800084F8340000BF0320D0E72068006800F034
:1013900001000028E8D194F85C103F208840A86044
:1013A000012084F8350000BF002084F8340000BF1D
:1013B00000BFBBE7014691F83500022803D080202A
:1013C000486501207047052081F8350008680068ED
:1013D00020F001000A6810600020F3E70146486D24
:1013E00070470000F8B50446002000908C48006863
:1013F0004FF41651B0FBF1F7A56D2E6894F85C1010
:1014000008208840304098B12068006800F004004F
:1014100070B12068006820F004002168086094F82A
:101420005C1008208840A860606D40F00100606595
:1014300094F85C1001208840304068B12068406911
:1014400000F0800040B194F85C1001208840A86052
:10145000606D40F00200606594F85C1004208840E4
:10146000304068B12068006800F0020040B194F894
:101470005C1004208840A860606D40F00400606546
:1014800094F85C1010208840304078B320680068E1
:1014900000F0080050B394F85C1010208840A86059
:1014A0002068006800F4802080B12068006800F4A3
:1014B000002028B9206CC8B12046216C884715E06F
:1014C000A06C98B12046A16C88470FE020680068A6
:1014D00000F4807028B92068006820F008002168B6
:1014E0000860206C10B12046216C884794F85C108D
:1014F000202088403040002865D02068006800F037
:10150000100000285FD094F85C1020208840A8606C
:1015100094F83500052828D12068006820F01600CE
:10152000216808602068406920F0800021684861D7
:10153000206C08B9A06C28B12068006820F0080071
:101540002168086094F85C103F208840A860012062
:1015500084F8350000BF002084F8340000BF206DFF
:1015600010B12046216D8847F8BD2068006800F45E
:10157000802080B12068006800F4002028B9606CE9
:1015800010B12046616C88471DE0E06BD8B1204661
:10159000E16B884717E02068006800F4807068B944
:1015A0002068006820F0100021680860012084F89D
:1015B000350000BF002084F8340000BFE06B10B19C
:1015C0002046E16B8847606D38B3606D00F0010024
:1015D000F0B1052084F835002068006820F0010093
:1015E0002168086000BF0098401C0090B84200D9F4
:1015F00005E02068006800F001000028F3D100BF7A
:10160000012084F8350000BF002084F8340000BFBA
:10161000E06C10B12046E16C884700BFA4E70000F1
:101620001C0100202DE9F0410446002500F040FB9C
:10163000074614B90120BDE8F081606A00B100BF1F
:10164000022084F8350000BF002084F8340000BF79
:101650002068006820F00100216808600AE000F0BE
:1016600027FBC01B052805D920206065032084F8CE
:101670003500E0E72068006800F001000028EED1A6
:101680002068056821480540D4E901010843E16864
:1016900008432169084361690843A1690843E16976
:1016A0000843216A08430543606A042803D1D4E94A
:1016B0000B0108430543206805602068456925F053
:1016C0000705606A0543606A04280DD1A06A0543D6
:1016D000E06A48B12046FFF7C3F828B140206065B2
:1016E000012084F83500A6E7206845612046FFF711
:1016F0009DF8064694F85C103F208840B0600020BA
:101700006065012084F83500002094E73F8010F0E8
:101710002DE9F04704460D4616461F464FF00008D7
:10172000D4F8589000BF94F83400012802D1022068
:10173000BDE8F087012084F8340000BF94F835003C
:10174000012825D1022084F83500002060653B4641
:10175000324629462046FFF7D8F894F85C103F201F
:101760008840C9F808002068006840F01600216829
:101770000860206C28B12068006840F008002168EB
:1017800008602068006840F001002168086006E0F9
:1017900000BF002084F8340000BF4FF0020840462C
:1017A000C6E7000070B5044600F082FA06462546FA
:1017B000681C10B104480078054400BF00F078FAB6
:1017C000801BA842FAD370BD1801002010B5044652
:1017D000204600F00BF800F08000802803D102487A
:1017E000006805F0CDFE10BDF40000200146D1F8E0
:1017F0008C0070472DE9F04104462068876B206813
:1018000000F580504569206800F58050C669384869
:10181000D0F8008005F0400050B106F0400038B12B
:101820003449206800F580504161204600F09CF862
:1018300005F0010058B106F0010040B14FF0011170
:10184000206800F580504161204600F0C3F805F49F
:10185000004088B306F4004070B3D4F8880040F02C
:101860000800C4F8880005F40050A8B1206800F50D
:101870008050406920490840C4F88C00206800F579
:101880008050C06920F4C031206800F58050C161EB
:10189000E020C4F884000CE0206800F58050406926
:1018A00048F280610840C4F88C00206800F5805040
:1018B00041612046FFF78AFF07F0080058B1206811
:1018C000C06A00F06000C4F89400204600F016F8EA
:1018D0000020C4F8940008F4002030B14FF4002038
:1018E00003490860204600F07FF8BDE8F081000061
:1018F000143C01404000010000207E0070472DE9AB
:10190000F04705460E46174698462868046904F0D5
:101910001C044FF4784000EAC62004434FF4F860FA
:1019200000EA8710044324F0020444F0010428680C
:10193000046100F0BDF981460BE000F0B9F9A0EBBD
:101940000900B0F5803F02D30120BDE8F087286888
:10195000046904F001000028EFD12868406980B2D2
:10196000C8F800000020F0E710B5044602480068FF
:1019700005F006FE10BD0000F400002070B506461C
:101980003068046924F01C0400F04EFD05460D4843
:10199000854202D244F0080411E00B48854202D28D
:1019A00044F00C040BE00948854200D207E00848E7
:1019B000854202D244F0040401E044F0100430688F
:1019C000046170BDC00E16020087930300E1F505A7
:1019D00080D1F00810B504460248006805F0D0FD3B
:1019E00010BD0000F800002070472DE9F0470546C3
:1019F0000E46174698462868046904F01C044FF404
:101A0000784000EAC62004434FF4F86000EA8710EB
:101A1000044344F0020444F001041FFA88F02968EA
:101A200048612868046100F043F981460BE000F04A
:101A30003FF9A0EB0900B0F5803F02D30120BDE8DB
:101A4000F0872868046904F001000028EFD100BF86
:101A5000F5E7704710B5044604480068204020B1FF
:101A6000024804602046FFF7F4FF10BD143C01401B
:101A7000F8B502460B460025002400200021E0E0D6
:101A8000012606FA01F51E6806EA0504AC4274D187
:101A90001E7906F00306012E04D01E7906F0030617
:101AA000022E13D190684F000326BE40B0434F0072
:101AB000DE68BE4030439060506801268E40B043DF
:101AC0001E79C6F300168E40304350601E7906F032
:101AD0000306032E09D0D0684F000326BE40B04352
:101AE0004F009E68BE403043D0601E7906F003066A
:101AF000022E13D1CF0802F1200656F827004E0718
:101B0000F70E0F26BE40B0434F07FF0E1E69BE40C2
:101B10003043CF0802F1200646F8270010684F0036
:101B20000326BE40B0431E7906F003064F00BE40B8
:101B3000304310605E6806F44036002E1DD000BFB2
:101B400000260096414E366846F480463F4F3E6080
:101B50003E46366806F48046009600BF00BF3C4E05
:101B60008F0856F827008E07370F0F26BE40B04368
:101B7000384EB24202D100262EE061E0364EB2422B
:101B800001D1012628E0354EB24201D1022623E0E0
:101B9000334EB24201D103261EE0324EB24201D191
:101BA000042619E0304EB24201D1052614E02F4E32
:101BB000B24201D106260FE02D4EB24201D10726D6
:101BC0000AE02C4EB24201D1082605E02A4EB2426C
:101BD00001D1092600E00A268F073F0FBE4030439F
:101BE0001B4E8F0846F82700244E3068A0435E68DD
:101BF00006F4801606B12043204E3060361D306852
:101C0000A0435E6806F4001606B120431B4E361D45
:101C100030601A4E361F3068A0435E6806F4003606
:101C200006B12043154E361F3060361F3068A04382
:101C30005E6806F4803606B12043104E083E3060E0
:101C4000491C1029FFF41CAFF8BD000044380240C5
:101C50000838014000000240000402400008024031
:101C6000000C024000100240001402400018024024
:101C7000001C02400020024000240240083C0140B9
:101C8000024613690B400BB1012000E000207047B1
:101C900010B5426921EA020302EA010443EA04435F
:101CA000836110BD0AB1816101E00B04836170475B
:101CB00001480068704700001001002003480068D8
:101CC0000349097808440149086070471001002061
:101CD0001801002010B50D48006840F400700B4951
:101CE00008600846006840F48060086008460068A4
:101CF00040F480700860032000F0D6F80F2000F058
:101D000007F800F055F8002010BD0000003C02402C
:101D1000F0B587B004460026002700BF00200090E1
:101D20001E48006840F001001C4908600846006831
:101D300000F00100009000BF00BF01A902A800F060
:101D400051FB00F087FB46001548B6FBF0F0471E3C
:101D500014481549086040F2E7311348C1604760F4
:101D6000002101618160816101F0F0FE054695B9B5
:101D70000D4801F07FFF05466DB9192000F042F8CB
:101D8000102C07D200222146192000F04FF80748F6
:101D9000046000E00125284607B0F0BD4438024049
:101DA00040420F0000000140A0010020140100206B
:101DB00008B500BF002000901148006840F4804042
:101DC0000F4908600846006800F48040009000BF9A
:101DD00000BF00BF00200090081F006840F0805046
:101DE000091F08600846006800F08050009000BF9E
:101DF00000BF00220F21901E00F018F808BD00005F
:101E0000443802400146084600280DDB00BF00BFF1
:101E100000F01F0301229A4043099B0003F1E023D5
:101E2000C3F8002100BF00BF00BF70472DE9F05F7D
:101E300080460D461646002704F0D2FF0746394675
:101E40002A46334601F00700C0F1070ABAF1040F31
:101E500002D94FF0040A01E0C0F1070AD14600F1AF
:101E6000040ABAF1070F02D24FF0000A01E0A0F114
:101E7000030AD4464FF0010A0AFA09FAAAF1010A44
:101E80000AEA020A0AFA0CFA4FF0010B0BFA0CFBF1
:101E9000ABF1010B0BEA030B4AEA0B042146404667
:101EA00004F0A6FFBDE8F09F00BF00F00702064B5C
:101EB00019684FF6FF031940044B0B4343EA022114
:101EC000014B196000BF70470CED00E00000FA05FF
:101ED00038B5002400BF002000901D48006840F085
:101EE00080501B4908600846006800F08050009050
:101EF00000BF00BF012017490864FFF7D9FE044660
:101F000007E0FFF7D5FE001BB0F57A7F01D903206B
:101F100038BD1148406800F48030B0F5803FF0D102
:101F200001200C494864FFF7C3FE044607E0FFF7B1
:101F3000BFFE001BB0F57A7F01D90320E8E7064811
:101F4000406800F40030B0F5003FF0D10020DFE73A
:101F50004038024000000E4200700040F8B50446D0
:101F600000250026207800F0010048B9207800F014
:101F70000200022804D0207800F04000402862D1FE
:101F80000020B1498866FFF793FE054606E0FFF79B
:101F90008FFE401B022801D90320F8BDAB48006822
:101FA000C0F3C0600028F2D1207800F0010038B101
:101FB00060688101207A41EA0070A4498431086098
:101FC000207800F00200022819D1A048843000686F
:101FD000C0F3027660688101207B41EA006040EA3C
:101FE00006709A498431086098488C30006820F067
:101FF0001F00E169491E084394498C31086020782C
:1020000000F0400040280AD160688101207B41EA4D
:102010000061207A41EA00708C4984310860012017
:1020200089498866FFF744FE054606E0FFF740FE53
:10203000401B022801D90320AFE784480068C0F3A1
:10204000C0600028F2D0207800F00400042804D0FA
:10205000207800F00800082863D100207A4908673A
:10206000FFF726FE054606E0FFF722FE401B02288A
:1020700001D9032091E775480068C0F3407000283B
:10208000F2D1207800F00400042819D16F4888307C
:102090000068C0F3027620698101207D41EA00607A
:1020A00040EA0670694988310860081D006820F41C
:1020B000F851206A401E41EA002064498C310860D2
:1020C000207800F00800082817D1604888300068A0
:1020D000C0F303662069800140EA0661207E41EA80
:1020E00000705A4988310860081D006820F44030AB
:1020F000616A084355498C310860012052490867DC
:10210000FFF7D6FD054606E0FFF7D2FD401B02288B
:1021100001D9032041E74D480068C0F34070002812
:10212000F2D0207800F0200020287DD100BF0020D0
:10213000009046484030006840F0805043494031AC
:1021400008600846006800F08050009000BF00BFA3
:102150003F48006840F480703D490860FFF7A8FDE3
:10216000054606E0FFF7A4FD401B022801D9032025
:1021700013E73748006800F480700028F2D0334835
:102180007030006800F440764EB3208D00F440704B
:10219000B04224D02D487030006820F440760120F1
:1021A0002C490860002008602848703006600068EC
:1021B00000F0010098B1FFF77BFD054608E0FFF74E
:1021C00077FD401B41F28831884201D90320E4E6C3
:1021D0001E4870300068C0F340000028EFD000BFF8
:1021E000208D00F44070B0F5407F0CD117480830C6
:1021F000006820F4F810184AA16A114008431349F6
:102200000831086007E011480830006820F4F81031
:102210000E49083108600D4870300068218DC1F307
:102220000B010843094900E002E07031086000BF7B
:10223000207800F01000102803D194F82C000749F2
:1022400008600020A9E60000000047420038024074
:1022500000700040400E4742FFFCFF0FE011474274
:1022600070B504460D460CB9012070BD5848006891
:1022700000F00F00A84209D255490D7008460068C9
:1022800000F00F00A84201D00120EEE7207800F016
:10229000020002281DD1207800F00400042805D196
:1022A0004C48006840F4E0504A490860207800F04B
:1022B0000800082805D14748006840F460404549B7
:1022C00008604448006820F0F000A16808434149D4
:1022D0000860207800F00100A8B36068012807D1E9
:1022E0003C4808380068C0F34040B8B90120BCE75A
:1022F0006068022802D06068032807D13548083892
:102300000068C0F3406048B90120AEE731480838A2
:102310000068C0F3400008B90120A6E72D48006816
:1023200020F00300616808432A490860FFF7C0FCF9
:10233000064609E0FFF7BCFC801B41F28831884269
:1023400002D9032091E707E02248006800F00C0062
:102350006168B0EB810FEDD11D48006800F00F00FF
:10236000A84209D91A490D700846006800F00F000C
:10237000A84201D0012078E7207800F0040004286A
:1023800007D11448006820F4E050E168084311497F
:102390000860207800F00800082808D10D4800687F
:1023A00020F46040216940EAC1000A49086000F059
:1023B00061F808490968C1F30311074A515CC84034
:1023C0000649086006480068FFF7A2FC00204CE7B9
:1023D000003C024008380240A09C00081C0100207C
:1023E000140100200F2202600D4A126802F003025D
:1023F00042600B4A126802F0F0028260084A1268DA
:1024000002F4E052C260064A126802F46042D20846
:102410000261044A126802F00F020A60704700006D
:1024200008380240003C0240014800687047000044
:102430001C01002000B5FFF7F7FF04490968C1F34C
:102440008221034A515CC84000BD000008380240A8
:10245000B09C000800B5FFF7E7FF04490968C1F325
:102460004231034A515CC84000BD000008380240B8
:10247000B09C00082DE9F047002400250026A14665
:102480002548006800F00C0020B1042805D0082879
:102490003AD105E0DFF8849039E0DFF8849036E047
:1024A0001D48001F006800F03F041B48001F006823
:1024B00000F4800078B11A481749091F0968C1F370
:1024C0008811A0FB01700146224600233846FDF723
:1024D000EBFE05460EE011480F49091F0968C1F3DC
:1024E0008811A0FB01700146224600233846FDF703
:1024F000DBFE05460848001F0068C0F30140401C91
:102500004600B5FBF6F902E0DFF8109000BF00BF0F
:102510004846BDE8F0870000083802400024F40077
:1025200040787D01F8B504460CB90120F8BD20784B
:1025300000F00100002874D0F948006800F00C0099
:1025400004280DD0F648006800F00C00082813D1CC
:10255000F348001F006800F48000B0F5800F0BD135
:10256000EF4808380068C0F34040002859D0606840
:10257000002856D10120D9E700BF6068B0F5803F40
:1025800008D1E7480838006840F48030E449083949
:1025900008601EE06068B0F5A02F0DD1E048083853
:1025A000006840F48020DE49083908600846006869
:1025B00040F4803008600CE0D9480838006820F406
:1025C0008030D749083908600846006820F4802028
:1025D000086000BF606890B1FFF76AFB054606E03F
:1025E000FFF766FB401B642801D903209EE7CC4817
:1025F00008380068C0F340400028F1D011E0FFF730
:1026000057FB054606E0FFF753FB401B642801D942
:1026100003208BE7C24808380068C0F34040002818
:10262000F1D1207800F0020002285FD1BC48006898
:1026300000F00C0058B1BA48006800F00C000828FF
:102640001CD1B748001F006800F48000B0B9B4483E
:1026500008380068C0F3400020B1E068012801D0CC
:10266000012063E7AE480838006820F0F8002169CF
:1026700040EAC100AA490839086037E0E06800B3C1
:102680000120A8490860FFF713FB054606E0FFF7A5
:102690000FFB401B022801D9032047E7A048083858
:1026A0000068C0F340000028F1D09D480838006859
:1026B00020F0F800216940EAC10099490839086012
:1026C00014E0002097490860FFF7F2FA054606E09B
:1026D000FFF7EEFA401B022801D9032026E79048B5
:1026E00008380068C0F340000028F1D1207800F0DD
:1026F000080008282CD16069A8B101208A49086027
:10270000FFF7D6FA054606E0FFF7D2FA401B02288B
:1027100001D903200AE782486C300068C0F340000A
:102720000028F1D014E000207F490860FFF7C0FACC
:10273000054606E0FFF7BCFA401B022801D903203A
:10274000F4E677486C300068C0F340000028F1D10F
:10275000207800F00400042870D100277048383039
:10276000006800F0805090B900BF002000906C48D5
:102770003830006840F080506949383108600846B8
:10278000006800F08050009000BF00BF012767483C
:10279000006800F48070B0B96448006840F480704C
:1027A00062490860FFF784FA054606E0FFF780FA01
:1027B000401B022801D90320B8E65C48006800F4F9
:1027C00080700028F2D000BFA068012808D15448CA
:1027D0006830006840F001005149683108601DE030
:1027E000A06805280DD14E486830006840F004000C
:1027F0004B49683108600846006840F001000860F5
:102800000CE047486830006820F001004449683116
:1028100008600846006820F00400086000BFA06857
:10282000A8B1FFF745FA054609E0FFF741FA401B5A
:1028300041F28831884202D9032077E626E0384801
:1028400068300068C0F340000028EED013E0FFF7C6
:102850002FFA054608E0FFF72BFA401B41F28831BA
:10286000884201D9032061E62D4868300068C0F332
:1028700040000028EFD1012F07D1294838300068E7
:1028800020F0805026493831086000BFA069002838
:1028900045D02348006800F00C0008285DD0A069EE
:1028A000022845D100201F490866FFF701FA0546B6
:1028B00006E0FFF7FDF9401B022801D9032035E6A9
:1028C000174808380068C0F340600028F1D1D4E907
:1028D00007010843616A40EA81110122A06AC2EB44
:1028E000500041EA00412C20005D41EA00600C49A3
:1028F000091F086001200B490866FFF7D9F9054652
:1029000006E0FFF7D5F9401B022801D903200DE6A8
:10291000034808380068C0F340600028F1D049E05F
:102920000838024000004742800E474200700040D5
:10293000002021490866FFF7BBF9054606E0FFF7CE
:10294000B7F9401B022801D90320EFE51B480068B6
:10295000C0F340600028F2D12CE0A069012800D12A
:10296000E4E51648001D0668A069012820D006F499
:102970008001E06981421BD106F03F01206A81425B
:1029800016D147F6C0703040616AB0EB811F0FD19D
:1029900006F440310122A06AC2EB5000B1EB004FB7
:1029A00006D106F070612C20005DB1EB006F01D004
:1029B0000120BBE50020B9E5000047420038024095
:1029C00002460023106800F1500303EB81031868EE
:1029D000704710B50023046804F1500303EB810332
:1029E0001A6010BD70B505460B46164600242868CF
:1029F00040680E4900EA0104200CD870C4F304209A
:102A0000587004F03F009870C4F3423018705EB9FB
:102A1000D87802F05AFAD870587802F056FA5870FE
:102A2000987802F052FA9870002070BD3FFFFF00C6
:102A300070B504460B46164600252068806A58602B
:102A400020680069C0F30E009860206800680E4995
:102A500000EA0105C5F305401870C5F3062058705B
:102A600005F07F009870A80DD8705EB9187802F054
:102A70002CFA1870587802F028FA5870987802F0FA
:102A800024FA9870002070BD7F7F7F0070B50446E7
:102A900001250CB9012070BD607F20B9002020778E
:102AA000204600F04DF8022060772068C068C0F32F
:102AB000001000283CD100BFCA2021684862532082
:102AC0002168486200BF204602F017FA0546EDB9BA
:102AD0002068806819490840216888602169606819
:102AE0000843616908432168896808432168886050
:102AF0002168E068086120680169208941EA004096
:102B000021680861204602F01DFA05465DB920687B
:102B1000006C20F48020216808642068006CA169A2
:102B200008432168086400BFFF202168486200E074
:102B300000250DB9012060772846ACE7BFFF8FFF65
:102B400010B58CB0044630216846FDF705FC0949F4
:102B5000206888420CD120200090C0000A9068466E
:102B6000FFF7FCF908B1FDF792FF01200249086068
:102B70000CB010BD002800403C0E47422DE9F0414A
:102B800005460C4617464FF0000800BF287F012875
:102B900002D10220BDE8F0810120287700BF022089
:102BA00068774FB9607800F01000102804D1607881
:102BB00000F0EF000A30607087B9E07802F090F919
:102BC0000304607802F08CF943EA0023A07802F055
:102BD00087F90343207843EA403809E0E0780004AD
:102BE000617840EA0120A1780843217840EA413821
:102BF00000BFCA202968486253202968486200BF84
:102C0000284602F07AF9064646B90B4808EA000061
:102C100029684860284602F095F906460EB9012059
:102C2000687700BFFF202968486200BF00BF00200E
:102C3000287700BF3046ADE73FFFFF002DE9F041A8
:102C400004460D4617464FF0000800BF207F0128BC
:102C500002D10220BDE8F0810120207700BF0220D0
:102C60006077CFB92068806800F0400000B102E0D2
:102C70000020E87000BF287802F032F90304687879
:102C800002F02EF943EA0023A87802F029F9034361
:102C9000E87843EA805812E02068806800F040003D
:102CA00000B102E00020E87000BF287800046978D5
:102CB00040EA0120A9780843E97840EA815800BF3A
:102CC000CA202168486253202168486200BF20461C
:102CD00002F013F90646B6B9124808EA0000216866
:102CE00008602068806820F4802021688860D5E929
:102CF00003010843216889680843216888602046E9
:102D000002F020F906460EB90120607700BFFF20CF
:102D10002168486200BF00BF0020207700BF304616
:102D200098E700007F7F7F0070B5044600250B48C0
:102D30002168C860FEF7BCFF054607E0FEF7B8FF54
:102D4000401BB0F57A7F01D9032070BD2068C068B0
:102D500000F020000028F1D00020F6E75F7F01009E
:102D600010B50446FDF752FC10BD0000F0B589B067
:102D700004460E460027032084F83400606C0328C4
:102D800020D0B6F5805F04D1A06B40F08050A063E6
:102D90001CE0B6F5006F07D1204602F0E4FF0546BF
:102DA000A06B2843A06311E03EB9204602F0A7FFC4
:102DB0000546A06B2843A06308E0A06B40F00060CC
:102DC000A06303E0A06B40F08050A063A06B38B11B
:102DD000174821688863012084F83400012713E034
:102DE00060680390A0680490E068059006966069AA
:102DF0000790A069089006A807C88DE8070020681A
:102E000003A90EC902F0E2F84FF40071206802F045
:102E100055F9054635B1064821688863A06B2843FB
:102E2000A0630127012084F83400384609B0F0BDC2
:102E3000FF0540007047000010B50246506E800F3D
:102E40000870506EC0F383604870506EC0F301602C
:102E50008870506E000CC870B2F86400000A0871E7
:102E600092F864004871906E000DC880906EC0F3B7
:102E7000034008726820805AC0F3C030487268204E
:102E8000805AC0F3803088726820805AC0F3403086
:102E9000C8726820805AC0F300300873002048735D
:102EA000506C002836D16820805A8005030DD06E02
:102EB00043EA90700861D06EC0F3C2600875D06EAE
:102EC000C0F302604875D06EC0F342508875D06E72
:102ED000C0F38240C875D06EC0F3C230087608696E
:102EE000401C50650B7E506D03F007039B1C0124B2
:102EF0009C4060435065087A00F00F030120984021
:102F00009065D2E915035B0A5843D0654FF400730E
:102F1000136621E0506C012813D16820805C800684
:102F2000830AD06E43EA104008610869401C83029E
:102F30005365536DD3654FF400739365936D1366BA
:102F40000AE02E4813689863906B40F080509063BD
:102F5000012082F8340010BD6C20805AC0F380300C
:102F600001F8190F6C20805AC0F3C61048706C200D
:102F7000805C00F07F008870106FC00FC870106F09
:102F8000C0F341700871106FC0F382604871106F18
:102F9000C0F383508871106FC0F34050C871002097
:102FA0000872106FC0F3004048727020805AC0F35E
:102FB000C03088727020805AC0F38030C872702090
:102FC000805AC0F3403008737020805AC0F300303C
:102FD00048737020805AC0F3812088737020805A13
:102FE000C0F30120C8737020805CC0F346000874F1
:102FF0000120487419390020ADE70000FF054000AA
:103000000246506C0860906C4860D06C8860106D0F
:10301000C860506D0861906D4861D06D8861106E18
:10302000C86100207047F8B504460020009069464A
:10303000204602F04CFE054615B1A06B2843A06364
:103040000098C0F343263046F8BD000070B5044632
:10305000256B2068406BC0F3C03030B105F008002C
:1030600018B1204602F00EFEF8E02068406BC0F375
:103070000020002862D04FF48070216888632068A7
:10308000C06B4CF23A3188432168C8632068C06A3B
:1030900020F001002168C86205F0080038B305F08F
:1030A000020010B905F0200050B1206802F04AF982
:1030B00006462EB1A06B3043A0632046FFF7BAFE50
:1030C00040F23A5021688863012084F834000020DF
:1030D000206305F0010010B905F0020018B1204688
:1030E00000F0A6FABAE0204600F0A7FAB6E005F034
:1030F00080000028B8D005F0200050B1206802F010
:1031000021F906462EB1A06B3043A0632046FFF79D
:1031100091FE05F001000028A6D105F0020000286C
:10312000A2D12068C06A20F008002168C86201208E
:1031300084F83400204600F080FA8FE02068406B6D
:10314000C0F3803030B105F0080018B1204602F01D
:103150003EFE83E02068406B40F23A21084008B10F
:10316000012000E00020002878D02068406BC0F3E8
:10317000400018B1A06B40F00200A0632068406BD3
:10318000C0F3C00018B1A06B40F00800A063206835
:10319000406BC0F3401018B1A06B40F02000A0635A
:1031A0002068406BC0F3001018B1A06B40F0100015
:1031B000A0632068406BC0F3402018B1A06B40F0C2
:1031C0000800A06340F23A70216888632068C06BF1
:1031D00040F23A3188432168C863206802F0B2F8AF
:1031E000A16B0843A06305F0080040B1012084F8FA
:1031F0003400002020632046FFF71CFE2EE005F07F
:10320000800000B305F0100010B905F0200050B1A7
:103210001348E16B0865E06BFEF7CCF898B1E06B02
:1032200002F07FFB1AE005F0010010B905F0020082
:1032300050B10C48216C0865206CFEF7BBF810B14A
:10324000206C02F041FB09E00020A063012084F81B
:103250003400002020632046FFF782FD70BD00008F
:1032600023590008C958000810B504460CB90120BC
:1032700010BD94F8340020B900202077204600F0DB
:1032800069F8032084F83400204600F00BF808B1F8
:103290000120EDE70020A0632063012084F83400C2
:1032A0000020E5E770B58AB0044600200490059040
:1032B0000690079008907620099007A807C88DE827
:1032C0000700206804A90EC901F080FE064616B169
:1032D00001200AB070BD00201C490860206801F080
:1032E0008FFE01201949A039C1F8A0000220FEF785
:1032F00059FA204602F060FC05463DB1012084F8F1
:103300003400A06B2843A0630120E2E7204602F0CE
:10331000D2FB05463DB1012084F83400A06B284360
:10332000A0630120D5E74FF40071206801F0C6FECC
:1033300005464DB1064821688863A06B2843A06309
:10334000012084F83400C4E70020C2E7A0802542B1
:10335000FF05400010B586B00446142101A8FCF713
:10336000FBFF5849206888427ED100BF00200090B2
:103370005548006840F400605349086008460068FA
:1033800000F40060009000BF00BF00BF002000906C
:103390004D481438006840F004004B491439086067
:1033A0000846006800F00400009000BF00BF00BFA6
:1033B000002000900846006840F0080008600846B9
:1033C000006800F00800009000BF00BF4FF4F85004
:1033D00001900220029001200390032004900C2011
:1033E000059001A93948FEF743FB04200190022013
:1033F000029001200390032004900C20059001A965
:103400003348FEF735FB3348334908604FF000601E
:103410004860002130488160C1604FF480610161E3
:1034200089004161890081612021C1610903016234
:1034300004214162032181624FF40001C1628910BD
:103440000163FEF7EFF808B1FDF721FB00BF22484A
:103450002064846300BF1F484830204908604FF053
:1034600000604860402100E029E01C4881600021A4
:10347000C1604FF48061016189004161890081610F
:103480002021C1610903016204214162032181629B
:103490004FF40001C16289100163FEF7C3F808B15F
:1034A000FDF7F5FA00BF0D48E063846300BF00221A
:1034B00005213120FEF7BAFC3120FEF7A3FC06B04F
:1034C00010BD0000002C01404438024000080240BA
:1034D000000C0240586402406C0C0020CC0C002010
:1034E0002DE9F04387B004460F4691461D46C84675
:1034F0003FB9A06B40F00060A063012007B0BDE8B9
:10350000F08394F8340001287ED10020A06308EBFA
:103510000501E06D814205D9A06B40F00070A06309
:103520000120EBE7032084F8340000202168C86202
:103530002068C06B40F22A3108432168C8633848CC
:10354000216CC8633748216CC8640020216C086571
:103550000021206C8160206C0068006820F0C000B1
:10356000216C89680843216C096808606A02930825
:10357000226802F180013A46206CFEF7C9F880B15A
:103580002068C06B20F495702168C86326482168C4
:103590008863A06B40F08040A063012084F8340071
:1035A000ACE7012021490860606C012801D04FEA96
:1035B00048284FF0FF30019068020290902003905D
:1035C00002200490002005900120069001A92068A7
:1035D00001F0CFFC012D07D98220206341462068ED
:1035E00001F0D4FD064606E08120206341462068B4
:1035F00001F0E8FD064676B10B4821688863A06BB0
:103600003043A063012000E007E084F8340000208C
:103610002063012072E7002070E702206EE70000BF
:10362000815800080D580008FF0540008C85254290
:1036300010B50446FDF734F810BD10B50446FDF78B
:103640004DF810BD2DE9F04387B0044688469146F9
:103650001D464F46B8F1000F07D1A06B40F0006047
:10366000A063012007B0BDE8F08394F8340001287E
:1036700074D10020A0637919E06D814205D9A06B57
:1036800040F00070A0630120ECE7032084F83400D0
:1036900000202168C8622068C06B40F21A210843EC
:1036A0002168C8633848E16BC8633848E16BC86477
:1036B0000020E16B0865606C012800D07F02012DBD
:1036C00007D9A02020633946206801F059FE06463C
:1036D00006E0902020633946206801F06DFE064622
:1036E00066B12B4821688863A06B3043A06301203A
:1036F00084F83400002020630120B3E7012025492D
:1037000008604021E06B8160E06B0068006820F099
:10371000C000E16B89680843E16B096808606902D1
:103720008B08216801F180024146E06BFDF7F0FF54
:10373000A8B12068C06B40F21A2188432168C86391
:10374000134821688863A06B40F08040A06301208B
:1037500084F8340000202063012083E711E04FF05B
:10376000FF300190680202909020039000200490A6
:1037700005900120069001A9206801F0FAFB0020C5
:1037800070E702206EE70000115900080D5800088C
:10379000FF0540008C85254210B504460CB9012078
:1037A00010BD606A38B96068B0F5827F00D105E06D
:1037B0000021E16102E00021216161610021A1623B
:1037C00094F8510028B9002084F85000204600F0F9
:1037D00047F8022084F851002068006820F040007B
:1037E00021680860A08800F48270218901F40441F6
:1037F0000843A18901F400610843217C01F0020122
:103800000843217D01F001010843218B01F400717F
:103810000843217F01F0380108432021095D01F0B0
:1038200080010843218D01F400510843216808609C
:103830000421A06901EA104094F8241001F010015D
:103840000843216848602068C06920F4006021684E
:10385000C86100206065012084F8510000209FE7C6
:1038600010B586B00446142101A8FCF775FD214966
:10387000206888423BD100BF002000901E480068AD
:1038800040F480101C4908600846006800F480106D
:10389000009000BF00BF00BF002000901648143801
:1038A000006840F020001449143908600846006898
:1038B00000F02000009000BF00BF4FF46070019046
:1038C0000220029000200390032004900520059020
:1038D00001A90A48FEF7CCF840200190012002908F
:1038E00003900220049001A90448FEF7C1F806B035
:1038F00010BD000000500140443802400014024056
:103900002DE9FE4F04460F4690461D460C9E0120B1
:103910000190FEF7CDF9814694F851B060680290AD
:10392000AA46BBF1010F0BD00298B0F5827F04D1FB
:10393000A06810B9BBF1040F02D00220BDE8FE8FD1
:103940001FB1B8F1000F00D00DB90120F6E700BF9C
:1039500094F85000012801D10220EFE7012084F8FB
:10396000500000BF94F85100042802D0052084F8CC
:10397000510000206065C4F83880E587A58727637B
:10398000E586A586206460642068006800F0400039
:10399000402805D02068006840F040002168086099
:1039A000E068B0F5006F52D1606810B1BAF1010F54
:1039B00009D1206B00882168C860206B801C2063BF
:1039C000E08E401EE0863BE02068806800F0020048
:1039D000022810D1E08E70B1019801280BD1206B24
:1039E00000882168C860206B801C2063E08E401E28
:1039F000E086002001902068806800F0010068B136
:103A0000E08F58B12068C068A16B0880A06B801C53
:103A1000A063E08F401EE08701200190FEF748F987
:103A2000A0EB0900B0420BD3701C48B1012084F810
:103A3000510000BF002084F8500000BF03207DE744
:103A4000E08E0028C0D1E08F0028BDD152E0606830
:103A500010B1BAF1010F09D1206B00782168087309
:103A6000206B401C2063E08E401EE0863CE0206816
:103A7000806800F00200022810D1E08E70B1019839
:103A800001280BD1206B007821680873206B401C43
:103A90002063E08E401EE086002001902068806850
:103AA00000F0010068B1E08F58B12068C068A16BD8
:103AB0000870A06B401CA063E08F401EE0870120CF
:103AC0000190FEF7F5F8A0EB0900B04201D3701C9D
:103AD00000B94EB9012084F8510000BF002084F8DD
:103AE000500000BF032029E7E08E0028BFD1E08FFF
:103AF0000028BCD14A463146204602F085FA40B142
:103B00002020606500BF002084F8500000BF012025
:103B100014E7A06850B900BF002000902068C0687A
:103B2000009020688068009000BF00BF012084F8EA
:103B3000510000BF002084F8500000BF606D08B144
:103B40000120FBE60020F9E67047704710B50446F7
:103B50000CB9012010BD94F83D0028B9002084F86C
:103B60003C00204600F026F8022084F83D00211D8C
:103B7000206802F0E7FC012084F8460000BF84F8CA
:103B80003E0001213F2001554020015541200155B3
:103B900000BF00BF012084F84200432001554420AB
:103BA00001554520015500BF012084F83D0000204B
:103BB000D0E7000010B586B00446142101A8FCF738
:103BC000CBFB2068B0F1804F30D100BF00200090C7
:103BD0002548006840F00100234908600846006855
:103BE00000F00100009000BF00BF00BF0020009067
:103BF0001D481038006840F001001B49103908606A
:103C00000846006800F00100009000BF00BF2020BF
:103C100001900220029000200390032004900120D4
:103C2000059001A91148FDF723FF1BE0104920680A
:103C3000884217D100BF002000900B48006840F078
:103C40000200094908600846006800F00200009080
:103C500000BF00BF002205211D20FEF7E7F81D2050
:103C6000FEF7D0F806B010BD403802400000024018
:103C700000040040014691F83D00012801D00120D8
:103C80007047022081F83D000868C06840F00100DC
:103C90000B68D8601A4B086898421BD00868B0F1CE
:103CA000804F17D0174B0868984213D0164B0868FE
:103CB00098420FD0154B086898420BD0144B0868F7
:103CC000984207D0134B0868984203D0124B0868FB
:103CD00098420CD10868806800F00702062A0CD0D0
:103CE0000868006840F001000B68186005E008688B
:103CF000006840F001000B6818600020C0E7000079
:103D0000000001400004004000080040000C00409A
:103D1000000401400040014000180040704770B5A9
:103D200004462068C5682068066906F0020002287B
:103D300019D105F00200022815D1401F2168086141
:103D4000012020772068806900F0030018B1204628
:103D5000FFF7E4FF05E0204600F097F8204600F06A
:103D600095F80020207706F00400042819D105F00A
:103D70000400042815D1C04321680861022020777F
:103D80002068806900F4407018B12046FFF7C6FF34
:103D900005E0204600F079F8204600F077F8002092
:103DA000207706F00800082819D105F00800082837
:103DB00015D1C04321680861042020772068C069BC
:103DC00000F0030018B12046FFF7A8FF05E02046E9
:103DD00000F05BF8204600F059F80020207706F04C
:103DE0001000102819D105F01000102815D1C0437B
:103DF00021680861082020772068C06900F44070BD
:103E000018B12046FFF78AFF05E0204600F03DF894
:103E1000204600F03BF80020207706F0010048B172
:103E200005F0010030B16FF0010021680861204603
:103E300000F02EF806F08000802809D105F08000FF
:103E4000802805D1C043216808612046FFF77CFE29
:103E500006F04000402809D105F04000402805D177
:103E6000C04321680861204600F01EF806F02000DB
:103E7000202809D105F02000202805D1C043216861
:103E800008612046FFF761FE70BD70477047000073
:103E900010B5044603492068884201D1FDF70EFFA2
:103EA00010BD0000000001407047704770B5044627
:103EB000002520684069C0F3C01594F8410021280E
:103EC00017D1B5B100BF00BF2168143151E8001F00
:103ED00021F080002168143141E80002002AF3D16A
:103EE00000BFA06B10B1A06BFDF70EFA204602F0E8
:103EF00081FC20684069C0F3801594F842002228B4
:103F000017D1B5B100BF00BF2168143151E8001FBF
:103F100021F040002168143141E80002002AF3D169
:103F200000BFE06B10B1E06BFDF7EEF9204602F048
:103F30001BFC002070BD70472DE9F84F0446206837
:103F400005682068C668206847694FF00009CA46BE
:103F500005F00F09B9F1000F0AD105F0200038B1C2
:103F600006F0200020B1204602F057FCBDE8F88F93
:103F7000B9F1000F7CD007F0010018B906F4907079
:103F8000002875D005F0010030B106F4807018B13A
:103F9000606C40F00100606405F0040030B107F08F
:103FA000010018B1606C40F00200606405F002008E
:103FB00030B107F0010018B1606C40F0040060649B
:103FC00005F0080048B106F0200010B907F0010024
:103FD00018B1606C40F008006064606C002846D046
:103FE00005F0200028B106F0200010B1204602F0B4
:103FF00014FC20684069C0F3801A606C00F008006F
:1040000010B9BAF1000F2DD0204602F0ADFB2068A8
:10401000406900F04000402820D100BF00BF216867
:10402000143151E8001F21F040002168143141E8AB
:104030000002002AF3D100BFE06B50B17748E16B7A
:104040000865E06BFDF7B6F988B1E06B016D884754
:104050000DE02046FFF76FFF09E009E02046FFF77B
:104060006AFF04E02046FFF766FF002060647DE7FA
:10407000206B012878D105F01000002874D006F0DC
:1040800010000028FAD000BF0020009020680068CF
:10409000009020684068009000BF00BF2068406921
:1040A00000F04000402860D1E06B006840681FFAD3
:1040B00080F8B8F1000F56D0A08D404553DDA4F82C
:1040C0002E80E06BC069B0F5807F43D000BF00BF99
:1040D00021680C3151E8001F21F4807021680C31F7
:1040E00041E80002002AF3D100BF00BF00BF2168F1
:1040F000143151E8001F21F001002168143141E81A
:104100000002002AF3D100BF00BF00BF21681431B4
:1041100051E8001F21F040002168143141E80002FD
:10412000002AF3D100BF202084F842000020206341
:1041300000BF00BF21680C3151E8001F21F01000C2
:1041400021680C3141E80002002AF3D100BFE06B86
:10415000FDF7DAF802206063A08DE28D801A81B24B
:104160002046FFF7A2FE01E742E0A08DE18D401A54
:104170001FFA80F8E08DD0B3B8F1000F37D000BF40
:1041800000BF21680C3151E8001F21F490702168B4
:104190000C3141E80002002AF3D100BF00BF00BF8C
:1041A0002168143151E8001F21F001002168143109
:1041B00041E80002002AF3D100BF202084F8420029
:1041C0000020206300BF00BF21680C3151E8001FB0
:1041D00021F0100021680C3141E80002002AF3D1DF
:1041E00000BF0220606341462046FFF75EFEBDE649
:1041F00005F0800030B106F0800018B1204602F0D2
:1042000025FDB3E605F0400030B106F0400018B1DE
:10421000204602F0DFFAA9E600BFA7E62D660008F7
:1042200010B504460CB9012010BDA06900B100E032
:1042300000BF94F8410028B9002084F840002046CF
:1042400000F02AF8242084F841002068C06820F497
:1042500000502168C860204602F05EFB20680069BB
:1042600020F49040216808612068406920F02A000D
:10427000216848612068C06840F400502168C86027
:1042800000206064202084F8410084F8420000206F
:10429000606300BFC8E7000010B586B00446142173
:1042A00001A8FCF759F8C449206888427DD100BFB5
:1042B00000200090C148006840F01000BF4908602D
:1042C0000846006800F01000009000BF00BF00BF6B
:1042D00000200090B9481438006840F00100B74948
:1042E000143908600846006800F00100009000BF23
:1042F00000BF4FF4C06001900220029000200390A4
:10430000032004900720059001A9AD48FDF7B0FBFC
:10431000AC48AD4908604FF0006048600021AA48F1
:104320008160C1604FF48061016100214161816160
:104330004FF48071C1614902016200214162FDF7C1
:1043400071F908B1FCF7A3FB00BF9F48E0638463E9
:1043500000BF9C4878309D4908604FF0006048607D
:1043600040219A4881600021C1604FF48061016161
:10437000002141618161C1614FF40031016200217E
:104380004162FDF74FF908B1FCF781FB00BF8F4890
:10439000A063846300BF002205212520FDF746FDB0
:1043A0002520FDF72FFD05E1FFE7894920688842B8
:1043B0007ED100BF002000908048001F006840F4BC
:1043C00000307E49091F08600846006800F400308C
:1043D000009000BF00BF00BF002000907748143855
:1043E000006840F00100754914390860084600680B
:1043F00000F00100009000BF00BF0C2001900220DF
:10440000029000200390032004900720059001A94A
:104410006B48FDF72DFB6F486F4908604FF0006057
:10442000486000216C488160C1604FF48061016187
:104430000021416181614FF48071C16149020162D3
:1044400000214162FDF7EEF808B1FCF720FB00BF48
:104450006148E063846300BF5E4818305F490860CC
:104460004FF00060486040215C4881600021C160DD
:104470004FF480610161002141618161C1614FF4AC
:104480000031016200214162FDF7CCF808B1FCF770
:10449000FEFA00BF5148A063846300BF00220521DB
:1044A0002620FDF7C3FC2620FDF7ACFC82E0FFE7E9
:1044B0004B49206888427DD100BF002000903F48D2
:1044C000001F006840F480203C49091F086008462E
:1044D000006800F48020009000BF00BF00BF0020F3
:1044E000009036481438006840F00200334914390F
:1044F00008600846006800F00200009000BF00BF9E
:104500004FF44060019002200290002003900320AD
:1045100004900720059001A93248FDF7A9FA2D481B
:104520006038314908604FF00060486000212E4833
:104530008160C1604FF4806101610021416181614E
:10454000C1614FF40031016200214162FDF76AF858
:1045500008B1FCF79CFA00BF2348E063846300BF06
:104560001C483038214908604FF000604860402105
:104570001E4881600021C1604FF48061016100210B
:1045800041618161C1614FF40031016200214162EA
:10459000FDF748F808B1FCF77AFA00BF1348A063AA
:1045A000846300BF002205212720FDF73FFC272060
:1045B000FDF728FC06B010BD001001404438024051
:1045C0000000024040640240F80800205809002022
:1045D0000044004088600240B8090020180A00200A
:1045E0000048004000040240780A0020D80A002059
:1045F00070B504460D46164694F8420020280BD1AB
:1046000005B10EB9012070BD002020633246294655
:10461000204602F097FAF6E70220F4E770B5044668
:104620000D46164694F8420020280BD105B10EB96C
:10463000012070BD0020206332462946204602F04A
:10464000E5FAF6E70220F4E7704770472DE9F84FE6
:1046500004460E46174699464FF0000A94F841006A
:10466000202850D106B117B90120BDE8F88F0020ED
:104670006064212084F84100FDF71AFB8246A7847C
:10468000E784A068B0F5805F04D1206910B90025E7
:10469000B04602E035464FF000081EE053460022C7
:1046A00080212046CDF8009002F000FB20B12020B0
:1046B00084F841000320D8E745B9B8F80000C0F3FA
:1046C00008002168486008F1020803E028782168A2
:1046D00048606D1CE08C401EE084E08C0028DDD139
:1046E0005346002240212046CDF8009002F0DEFA29
:1046F00020B1202084F841000320B6E7202084F870
:1047000041000020B1E70220AFE7704700BFFEE79D
:1047100000B587B0142102A8FBF71EFE00BF0020E1
:1047200001901248006840F0800010490860084677
:10473000006800F08000019000BF00BF30200290B0
:104740000120039004900220059002A90848FDF77B
:104750008FF9012220210648FDF7A4FA0122102139
:104760000348FDF79FFA07B000BD00003038024053
:10477000001C024070B50446244800682022B2FAAA
:1047800082F2C2F11F014A000321914088431F4970
:104790000860084600682022B2FA82F2C2F11F01C6
:1047A0004A00012191400843184908600022102165
:1047B0001648FDF777FA002524E004F0800028B1C0
:1047C000012220211148FDF76DFA04E0002220218A
:1047D0000E48FDF767FA022002F084FD0122102145
:1047E0000A48FDF75FFA022002F07CFD002210214A
:1047F0000648FDF757FA022002F074FD6006040E29
:10480000681CC5B2082DD8DB70BD0000001C02403A
:1048100010B51A4800682022B2FA82F2C2F11F01D4
:104820004A00032191408843144908600846006803
:104830002022B2FA82F2C2F11F014A000121914006
:1048400008430E490860012220210C48FDF72AFA8E
:10485000012210210948FDF725FA042002F042FD4B
:10486000002220210548FDF71DFA042002F03AFD40
:10487000002210210148FDF715FA10BD001C02406E
:1048800010B51A4800682022B2FA82F2C2F11F0164
:104890004A00032191408843144908600846006893
:1048A0002022B2FA82F2C2F11F014A000121914096
:1048B00008430E490860002220210C48FDF7F2F958
:1048C000002210210948FDF7EDF9042002F00AFD4D
:1048D000012220210548FDF7E5F9042002F002FD40
:1048E000012210210148FDF7DDF910BD001C024036
:1048F00010B50024194800682022B2FA82F2C2F1F1
:104900001F014A0003219140884314490860012295
:1049100020211248FDF7C6F9012002F0E3FC012234
:1049200010210E48FDF7BEF9012002F0DBFC07E084
:10493000601CC4B2FA2C03DDFFF7A2FF012010BDFA
:1049400020210648FDF79CF90028F1D10022102112
:104950000248FDF7A7F90020F1E70000001C024023
:1049600008B500BF002000902E48006840F4800089
:104970002C4908600846006800F48000009000BFE1
:1049800000BF00BF002000900846006840F40010FF
:1049900008600846006800F40010009000BF00BFE7
:1049A000002205210C20FDF741FA0C20FDF72AFA20
:1049B000002205210E20FDF739FA0E20FDF722FA1C
:1049C000002205211020FDF731FA1020FDF71AFA18
:1049D000002205211120FDF729FA1120FDF712FA16
:1049E000002205213A20FDF721FA3A20FDF70AFAC4
:1049F000002205214620FDF719FA4620FDF702FAAC
:104A0000002205213B20FDF711FA3B20FDF7FAF9C2
:104A1000002205214520FDF709FA4520FDF7F2F9AE
:104A200008BD00003038024008B50F48009000BFB4
:104A30000098411E00910028FAD10C48006840F00F
:104A400080700A49086000200949486008460068EB
:104A500040F0010008600846406808B100BF01E06E
:104A600000BF00BF08BD000040420F00FCED00E0A9
:104A7000001000E010B503490348FCF70BF80349A8
:104A8000087010BDDD0000207C9C0008DC000020C8
:104A900000B585B0142206496846FBF736FC0021B4
:104AA000684602F095FD0349086005B000BD0000AE
:104AB000409C00089000002000B587B0142102A897
:104AC000FBF74AFC00BF002001906048006840F0FE
:104AD00001005E4908600846006800F0010001908E
:104AE00000BF00BF00BF002001900846006840F0F2
:104AF000020008600846006800F00200019000BF54
:104B000000BF00BF002001900846006840F004008C
:104B100008600846006800F00400019000BF00BF74
:104B200000BF002001900846006840F008000860BF
:104B30000846006800F00800019000BF00BF00BFF9
:104B4000002001900846006840F010000860084608
:104B5000006800F01000019000BF00BF00BF0020FF
:104B600001900846006840F0200008600846006890
:104B700000F02000019000BF00BF00BF00200190A6
:104B80000846006840F0400008600846006800F0F1
:104B90004000019000BF00BF00BF00200190084608
:104BA000006840F0800008600846006800F080005F
:104BB000019000BF00BF00BF0020019008460068C0
:104BC00040F4807008600846006800F4807001902E
:104BD00000BF00BF012240211D48FDF763F80122FC
:104BE00030211C48FDF75EF8012223211A48FDF709
:104BF00059F80C200290002003900120049002A993
:104C00001448FCF735FF4FF4005002900020039049
:104C10000120049002A91148FCF72AFF032002900A
:104C20000120039004900220059002A90A48FCF795
:104C30001FFF202002900120039004900220059085
:104C400002A90548FCF714FF07B000BD3038024048
:104C500000140240001C0240000402400008024010
:104C600000B587B0284829490860002048607F21A6
:104C700026488160FF21C16000210161416181619D
:104C8000FDF704FF08B1FBF702FF00211F48FDF705
:104C900097FE45F25051884233D0142102A8FBF709
:104CA0005BFB0020019012208DF8080020208DF879
:104CB000090000208DF80A0005900690012202A943
:104CC0001248FDF7BBFF08B1FBF7E1FE04208DF8A9
:104CD000040003208DF8050027208DF8060025200C
:104CE0008DF80700012201A90848FDF747FF08B128
:104CF000FBF7CDFE45F2505200210448FDF769FE56
:104D000000BF07B000BD000000280040380B0020A5
:104D10000648074908600020486000210448816077
:104D2000C16001614161816170470000002C014058
:104D3000E80B002010B51048104908604FF482704D
:104D4000486000210D488160C1600221016101219C
:104D50004161490281610021C16101624162816258
:104D60000A21C162FEF718FD08B1FBF790FEFF2093
:104D700001F08EF910BD0000005001408C0B0020A6
:104D800010B50B480B4908604FF4E1304860002132
:104D900008488160C16001610C214161002181618D
:104DA000C161FFF73DFA08B1FBF771FE10BD0000CD
:104DB000001001402008002010B50B480B49086086
:104DC0004FF416504860002108488160C1600161BD
:104DD0000C21416100218161C161FFF721FA08B115
:104DE000FBF755FE10BD000000440040680800209D
:104DF00010B50B480B4908604FF4E13048600021C2
:104E000008488160C16001610C214161002181611C
:104E1000C161FFF705FA08B1FBF739FE10BD0000CC
:104E200000480040B008002000BFFEE700BFFEE7DA
:104E300010B586B0142101A8FBF78EFA00BF002040
:104E400000901748006840F00200154908600846C5
:104E5000006800F00200009000BF00BF88140190BD
:104E600000200290012003900220049001A90D4827
:104E7000FCF7FEFDFFF74CFCFFF7CAFC4020FFF7F4
:104E800079FCFFF735FD0446FFF7FAFC24B9FF2053
:104E900000F00AF800BF01E000BF00BF06B010BD7F
:104EA000303802400004024010B50446FFF7B0FC61
:104EB0004020FFF75FFCFFF71BFD2046FFF75AFC81
:104EC000FFF716FDFFF7DCFC10BD014600BF080927
:104ED00000EB8000420001F00F001044C0B27047A8
:104EE0000146002203E0521CA1F10A00C1B20A29C6
:104EF000F9D2100741EA1060704770B504460026E9
:104F000000252068C06800F04000C8B92068C0686B
:104F100040F080002168C860FCF7CAFE064608E041
:104F2000FCF7C6FE801BB0F57A7F02D904206077BB
:104F300001252068C06800F0400008B9012DEFD1BC
:104F4000284670BD70B5044600252068C06820F072
:104F500080002168C8602068806800F0200030B9B7
:104F60002046FDF7E1FE10B10420607701252846B8
:104F700070BD10B502460023086850624868906210
:104F8000D1E9020420430C6920434C6920430343C8
:104F9000D06A20F0F7001843D062002010BD01460F
:104FA0000869C0B270470146086800F00300704706
:104FB000024602F1140043181868704710B5024801
:104FC000FEF744F810BD0000E80B00200FB410B548
:104FD00004460021DDE903021043059A1043069AB6
:104FE0001043079A1043089A10430143606847F63C
:104FF000FF62904308436060002010BC5DF814FB22
:10500000014603200860002070470146D1F8800067
:10501000704710B50246002308689060D1E901048A
:105020002043CC6820430C6920430343D0686FF3CE
:105030000B001843D060002010BD02460868C2F87B
:1050400080000020704770B585B005460C4600947E
:105050003720019040200290002003904FF48060A0
:10506000049069462846FFF7D4FF41F28832372181
:10507000284600F0DDF90646304605B070BD000058
:1050800070B585B005460C460B482043009029209A
:10509000019040200290002003904FF48060049023
:1050A00069462846FFF7B5FF284600F0C9FA0646CC
:1050B000304605B070BD00000000108070B585B0AE
:1050C00005460C46009410200190402002900020DC
:1050D00003904FF48060049069462846FFF799FFDB
:1050E00041F288321021284600F0A2F906463046E7
:1050F00005B070BD70B585B005460C46009406201D
:10510000019040200290002003904FF480600490B2
:1051100069462846FFF77DFF41F28832062128467E
:1051200000F086F90646304605B070BD30B585B052
:105130000446002000900190029003904FF480609C
:10514000049069462046FFF764FF204600F050F9BE
:105150000546284605B030BD30B585B004464FF44D
:10516000D57000900820019040200290002003900C
:105170004FF48060049069462046FFF74AFF2046BE
:1051800000F0E6FA0546284605B030BD70B585B09A
:1051900005460C4600941220019040200290002009
:1051A00003904FF48060049069462846FFF731FF72
:1051B00041F288321221284600F03AF9064630467C
:1051C00005B070BD70B585B005460C460094112041
:1051D000019040200290002003904FF480600490E2
:1051E00069462846FFF715FF41F28832112128460B
:1051F00000F01EF90646304605B070BDF0B585B02A
:10520000064614461D460094072001904020029057
:10521000002003904FF48060049069463046FFF709
:10522000F8FE41F288320721304600F001F90746C6
:10523000384605B0F0BD30B585B00446002000907A
:1052400002200190C0200290002003904FF4806063
:10525000049069462046FFF7DCFE204600F0BEF9C8
:105260000546284605B030BD70B585B005460C46EC
:10527000009409200190C0200290002003904FF478
:105280008060049069462846FFF7C3FE284600F078
:10529000A5F90646304605B070BD30B585B0044668
:1052A00000200090332001904020029000200390C5
:1052B0004FF48060049069462046FFF7AAFE41F251
:1052C00088323321204600F0B3F80546284605B061
:1052D00030BD70B585B005460C4600940D20019098
:1052E00040200290002003904FF4806004906946B3
:1052F0002846FFF78EFE41F288320D21284600F045
:1053000097F80646304605B070BD70B585B00546C5
:105310000C460020009003200190402002900020C5
:1053200003904FF48060049069462846FFF771FEB1
:1053300022460321284600F0AFF90646304605B064
:1053400070BD000030B585B00446002000900C20F0
:10535000019040200290002003904FF48060049060
:1053600069462046FFF755FE044A0C21204600F00E
:105370005FF80546284605B030BD000000E1F505A0
:1053800070B585B005460C46009419200190402068
:105390000290002003904FF48060049069462846F4
:1053A000FFF737FE41F288321921284600F040F815
:1053B0000646304605B070BD70B585B005460C4652
:1053C00000941820019040200290002003904FF498
:1053D0008060049069462846FFF71BFE41F2883240
:1053E0001821284600F024F80646304605B070BD66
:1053F00001460E480068C0084FF47A73B0FBF3F022
:1054000041F2883300FB03F200BF101EA2F101023B
:1054100002D14FF000407047486B00F08000002838
:10542000F3D0C52088630020F5E700001C010020B0
:105430002DE9F04305460F46904666480068C008CF
:105440004FF47A71B0FBF1F000FB08F900BFB9F13D
:105450000000A9F1010903D14FF00040BDE8F0833D
:105460006E6B06F045000028F1D006F400600028BD
:10547000EDD1686B00F0040010B10420A863EDE7E3
:10548000686B00F0010010B10120A863E6E7C520B9
:10549000A8632846FFF783FDB84201D00120DDE76D
:1054A00000212846FFF784FD04464B48204008B9F8
:1054B0000020D3E704F00040B0F1004F02D14FF0DC
:1054C0000070CBE704F08040B0F1804F01D1402064
:1054D000C4E704F00050B0F1005F01D18020BDE7C7
:1054E00004F08050B0F1805F02D14FF48070B5E7D6
:1054F00004F00060B0F1006F02D14FF40070ADE72E
:1055000004F08060B0F1806F02D14FF48060A5E7B5
:1055100004F08070B0F1807F02D14FF400609DE70D
:1055200004F40000B0F5000F02D14FF4805095E76D
:1055300004F48000B0F5800F02D14FF400508DE7E5
:1055400004F40010B0F5001F02D14FF4804085E74D
:1055500004F48010B0F5801F02D14FF400407DE7C5
:1055600004F48020B0F5802F02D14FF4003075E7AD
:1055700004F40030B0F5003F02D14FF480206DE715
:1055800004F48030B0F5803F02D14FF4002065E78D
:1055900004F40040B0F5004F02D14FF480105DE7F5
:1055A00004F48040B0F5804F02D14FF4001055E76D
:1055B00004F40050B0F5005F02D14FF480004DE7D5
:1055C00004F00800082801D1000547E74FF48030B7
:1055D00044E700001C01002008E0FFFD10B5014673
:1055E00016480068C0084FF47A74B0FBF4F041F23A
:1055F000883400FB04F300BF181EA3F1010302D19D
:105600004FF0004010BD4A6B02F045000028F3D077
:1056100002F400600028EFD1486B00F0040010B1E4
:1056200004208863EEE7486B00F0010010B1012010
:105630008863E7E7C52088630020E3E71C010020BA
:1056400010B5014613480068C0084FF47A74B0FBE7
:10565000F4F041F2883400FB04F300BF181EA3F1FC
:10566000010302D14FF0004010BD4A6B02F045002B
:105670000028F3D002F400600028EFD1486B00F05E
:10568000040010B104208863EEE7C5208863002081
:10569000EAE700001C0100202DE9F04304460F4614
:1056A00090462A480068C0084FF47A71B0FBF1F0C8
:1056B00041F2883100FB01F900BFB9F10000A9F106
:1056C000010903D14FF00040BDE8F083666B06F09E
:1056D00045000028F1D006F400600028EDD1606B91
:1056E00000F0040010B10420A063EDE7606B00F04F
:1056F000010010B10120A063E6E72046FFF74FFC50
:10570000B84201D00120DFE7C520A0630021204678
:10571000FFF74EFC054605F4604020B9280CA8F8B8
:1057200000000020D0E705F48040B0F5804F02D1A2
:105730004FF40050C8E705F40040B0F5004F02D127
:105740004FF48050C0E74FF48030BDE71C010020CB
:1057500010B5014618480068C0084FF47A74B0FBD1
:10576000F4F041F2883400FB04F300BF181EA3F1EB
:10577000010302D14FF0004010BD4A6B02F045001A
:105780000028F3D002F400600028EFD1486B00F04D
:10579000040010B104208863EEE7486B00F00100BC
:1057A00010B101208863E7E7486B00F0400008B1C2
:1057B000402088630020DFE71C01002010B504466C
:1057C000012007490870FAF72DFF28B9044800782E
:1057D00020F00100024908700148007810BD000067
:1057E000E400002070B5044601F039FE054604E0EF
:1057F000FAF718FF08B9002070BD01F030FE401B19
:10580000A042F5D34FF0FF30F6E700002DE9F0415C
:105810000646B46B3046FBF7E1FD02282CD0206C25
:10582000476DE06BD0F85480012F02D0B8F1010F22
:105830001FD11248216888632068C06B20F49D70D6
:105840002168C863A06B40F08040A0632046FDF74C
:10585000EAFB0546062D01D0052D05D12068FFF78E
:1058600071FDA16B0843A063012084F8340000207F
:1058700020632046FDF7DEFABDE8F081FF05400019
:1058800070B50646B46B206B82280AD12068FFF7FA
:1058900059FD05462DB1A06B2843A0632046FDF7B6
:1058A000C9FA2068C06A20F008002168C86240F286
:1058B0003A5021688863012084F834000020206376
:1058C0002046FDF7B5FE70BD70B50546AC6B40F2E5
:1058D0003A50216888632046FDF7A5FB0646012063
:1058E00084F8340000202063062E01D0052E05D157
:1058F0002068FFF727FDA16B0843A063A06B18B9D0
:105900002046FDF72DFA02E02046FDF793FA70BD20
:105910000146886B0268D26B42F480720368DA63D6
:10592000704770B50546AC6B40F23A502168886309
:105930002046FDF778FB0646012084F8340000205D
:105940002063062E01D0052E05D12068FFF7FAFC52
:10595000A16B0843A063A06B18B92046FDF700FABD
:1059600002E02046FDF766FA70BD2DE9F04389B0EC
:1059700004460F46FCF79CF981464FF000080020D2
:10598000019002903E4608212068FFF797FB0546EC
:105990001DB1284609B0BDE8F0835022125B110406
:1059A0002068FFF750FB05460DB12846F2E74FF09F
:1059B000FF300390082004903020059002200690CC
:1059C000002007900120089003A92068FFF7D1FA72
:1059D0002068FFF762FC05460DB12846DAE71CE0B7
:1059E0002068406B00F4001040B12068FFF70DFB09
:1059F00001A941F8280008F1010805E02068406B82
:105A000000F4005000B90EE0FCF752F9A0EB0900D9
:105A1000401C10B94FF00040BCE72068406B00F01C
:105A20002A000028DCD000BF2068406B00F008008E
:105A300020B92068406B00F4007018B1082021687C
:105A40008863A7E72068406B00F0020018B10220CD
:105A5000216888639EE72068406B00F0200018B141
:105A600020202168886395E740F23A5021688863D6
:105A700002980006029901F47F4140EA0120029950
:105A800001F47F0140EA1120029940EA1160306080
:105A9000361D01980006019901F47F4140EA01207A
:105AA000019901F47F0140EA1120019940EA116057
:105AB000306000206EE730B58FB0044601200390BF
:105AC0002068FFF770FA18B94FF080600FB030BD52
:105AD000606C03281BD02068FFF7ADFB05460DB1B5
